:0600000000F07BEF00F0B0
:10000800FFFF3C82D9CF03F0DACF04F043EF00F0D2
:10001800FFFF000E8C6E72EF00F0FFFFD8903234B5
:10002800D96E3334DA6E000ED926030EDA22020EA8
:10003800DE6E000EDD6EFFFF324A332A72EF00F0EB
:10004800FFFFD8903234D96E3334DA6E000ED926D9
:10005800030EDA22030EDE6E000EDD6E1FEF00F0D7
:10006800FFFF100E8C6E72EF00F0FFFF200E8C6EFB
:1000780072EF00F0FFFF400E8C6E72EF00F0FFFF92
:100088008150016E026A0250000AD8B44EEF00F0A7
:1000980072EF00F0FFFF0150000AD8B40CEF00F037
:1000A800020AD8B411EF00F0060AD8B472EF00F0D3
:1000B8000C0AD8B424EF00F0180AD8B434EF00F0D2
:1000C800300AD8B439EF00F0600AD8B43EEF00F037
:1000D800C00AD8B472EF00F072EF00F0FFFF04C05E
:1000E800DAFF03C0D9FF3C921100FFFFFFFFBAEF10
:1000F80004F0FFFFD8EF01F0FFFF83A886EF00F0C0
:1001080089EF00F0FFFFF8EF01F0FFFF8B82000E90
:10011800236E000E226EAAEF00F0FFFFD890223463
:10012800D96E2334DA6E020ED926010EDA22D8905F
:100138002234E16E2334E26E000EE126010EE22243
:10014800DECFE6FFDDCFE5FF224A232AFFFF3A5044
:10015800225C2350800A206E3B50800A2058D8A089
:10016800B8EF00F0BBEF00F0FFFF91EF00F0FFFFEA
:100178003A06D8A03B068C80000E356E010E346E10
:1001880013EC03F08C90060E216EB60E206EF90E5D
:10019800FFFFE82EFDD7202EFBD7212EF9D78B9213
:1001A800F8EF01F0FFFF83AADCEF00F0DFEF00F0CB
:1001B800FFFFF8EF01F0FFFF8B828C82000E356E97
:1001C800020E346E000E256E000E246E05EF01F04F
:1001D800FFFFD8902434D96E2534DA6E020ED92662
:1001E800010EDA22D8902434E16E2534E26E000E36
:1001F800E126010EE222DECFE6FFDDCFE5FF244A4D
:10020800252AFFFF3A50245C2550800A206E3B5077
:10021800800A2058D8A013EF01F016EF01F0FFFF75
:10022800ECEF00F0FFFF3A06D8A03B0613EC03F012
:100238008C92060E216EB60E206EF90EFFFFE82E88
:10024800FDD7202EFBD7212EF9D78B92F8EF01F09E
:10025800FFFF83AC32EF01F035EF01F0FFFFF8EF5D
:1002680001F0FFFF8B828C84000E356E030E346E16
:10027800000E276E000E266E5BEF01F0FFFFD89090
:100288002634D96E2734DA6E020ED926010EDA2208
:10029800D8902634E16E2734E26E000EE126010E76
:1002A800E222DECFE6FFDDCFE5FF264A272AFFFF61
:1002B8003A50265C2750800A206E3B50800A20580E
:1002C800D8A069EF01F06CEF01F0FFFF42EF01F0F9
:1002D800FFFF3A06D8A03B0613EC03F08C94060EF9
:1002E800216EB60E206EF90EFFFFE82EFDD7202EE8
:1002F800FBD7212EF9D78B92F8EF01F0FFFF83AEE1
:1003080088EF01F08BEF01F0FFFFF8EF01F0FFFF3E
:100318008B828C86000E356E040E346E000E296EAC
:10032800000E286EB1EF01F0FFFFD8902834D96E87
:100338002934DA6E020ED926010EDA22D890283432
:10034800E16E2934E26E000EE126010EE222DECFD4
:10035800E6FFDDCFE5FF284A292AFFFF3A50285C4F
:100368002950800A206E3B50800A2058D8A0BFEF41
:1003780001F0C2EF01F0FFFF98EF01F0FFFF3A062E
:10038800D8A03B0613EC03F08C96060E216EB60E31
:10039800206EF90EFFFFE82EFDD7202EFBD7212E69
:1003A800F9D78B92F8EF01F0FFFF00C120F001C1EF
:1003B80021F02150000AD8B4E4EF01F0F8EF01F081
:1003C800FFFF2050010AD8B480EF00F0030AD8B428
:1003D800D6EF00F0010AD8B42CEF01F0070AD8B420
:1003E80082EF01F0F8EF01F0FFFF1200FFFFFFFFBF
:1003F800000E116E000E106E000E0F6E000E0E6EC7
:1004080007C012F008C013F0FFFF05C0D9FF06C0EF
:10041800DAFFDECF18F0DDCF19F0000E1B6E000EEC
:100428001A6E62EF02F0FFFFD8901A34D96E1B34AF
:10043800DA6E0550D9260650DA221850DE1807E180
:100448001950DE18D8A42BEF02F02EEF02F0FFFFB0
:1004580033EF02F0FFFF1AC00EF01BC00FF0FFFFD2
:10046800D8901A34D96E1B34DA6E0550D926065046
:10047800DA221850DE5CDE50800A0B6E1950800AB2
:100488000B58D8B04AEF02F04DEF02F0FFFF5FEFD4
:1004980002F0FFFFD8901A34D96E1B34DA6E05507B
:1004A800D9260650DA22DECF18F0DDCF19F01AC0AF
:1004B8000EF01BC00FF0FFFF1A4A1B2AFFFF125055
:1004C8001A5C1B50800A096E1350800A0958D8A07C
:1004D80070EF02F073EF02F0FFFF17EF02F0FFFF7B
:1004E8000EC014F00FC015F09FEF02F0FFFF14C00C
:1004F80009F015C00AF0D89009360A3605C00BF085
:1005080006C00CF009500B260A500C22020E0B24D0
:10051800D96E000E0C20DA6ED8901434E16E1534C2
:10052800E26E0550E1260650E222DECFE6FFDDCF7F
:10053800E5FF144A152AFFFF1250145C1550800A73
:10054800096E1350800A0958D8A0ADEF02F0B0EF39
:1005580002F0FFFF7AEF02F0FFFFD8901034D96E57
:100568001134DA6E000ED926040EDA2218C0DEFF26
:1005780019C0DDFF1206D8A01306104A112AFF0E73
:10058800096EFF0E0A6E07C00BF008C00CF0095088
:100598000B260A500C2210500B5C0C50800A0D6E72
:1005A8001150800A0D58D8B0DCEF02F0DFEF02F0EE
:1005B800FFFF08EF02F0FFFF000E176E000E166E29
:1005C800FFEF02F0FFFFD8901634D96E1734DA6EB9
:1005D800000ED926040EDA22D8901634E16E1734AC
:1005E800E26E0550E1260650E222DECFE6FFDDCFBF
:1005F800E5FF164A172AFFFF0750165C1750800AB6
:10060800096E0850800A0958D8A00DEF03F010EFC2
:1006180003F0FFFFE6EF02F0FFFF1200FFFFFFFF0E
:10062800FFFF80A01AEF03F01DEF03F0FFFF4EEF6E
:1006380003F0FFFF35BE2CEF03F0355006E134041C
:10064800D8B029EF03F02CEF03F0FFFF3EEF03F0E3
:10065800FFFFD8903A34D96E3B34DA6E000ED926B3
:10066800010EDA22010EDE6E000EDD6E3A4A3B2ADA
:100678004EEF03F0FFFFD8903834D96E3934DA6E74
:10068800000ED926020EDA22010EDE6E000EDD6E95
:10069800384A392AFFFF80A254EF03F057EF03F0DE
:1006A800FFFF89EF03F0FFFF35BE67EF03F035501A
:1006B80007E1020E345CD8B064EF03F067EF03F093
:1006C800FFFF79EF03F0FFFFD8903A34D96E3B343F
:1006D800DA6E000ED926010EDA22020EDE6E000E48
:1006E800DD6E3A4A3B2A89EF03F0FFFFD890383491
:1006F800D96E3934DA6E000ED926020EDA22020ECD
:10070800DE6E000EDD6E384A392AFFFF80A48FEFB7
:1007180003F092EF03F0FFFFC4EF03F0FFFF35BED5
:10072800A2EF03F0355007E1030E345CD8B09FEF19
:1007380003F0A2EF03F0FFFFB4EF03F0FFFFD89040
:100748003A34D96E3B34DA6E000ED926010EDA221D
:10075800030EDE6E000EDD6E3A4A3B2AC4EF03F04C
:10076800FFFFD8903834D96E3934DA6E000ED926A6
:10077800020EDA22030EDE6E000EDD6E384A392ACA
:10078800FFFF80A6CAEF03F0CDEF03F0FFFFFFEFF6
:1007980003F0FFFF35BEDDEF03F0355007E1040E2F
:1007A800345CD8B0DAEF03F0DDEF03F0FFFFEFEFD2
:1007B80003F0FFFFD8903A34D96E3B34DA6E000E5E
:1007C800D926010EDA22040EDE6E000EDD6E3A4ADC
:1007D8003B2AFFEF03F0FFFFD8903834D96E393445
:1007E800DA6E000ED926020EDA22040EDE6E000E34
:1007F800DD6E384A392AFFFF80A805EF04F008EFBC
:1008080004F0FFFF14EF03F0FFFF000E1C6E010E53
:100818001D6E3AC01EF03BC01FF01CC005F01DC085
:1008280006F01EC007F01FC008F0FBEC01F0120034
:10083800FFFFFFFF000E316E010E306E000E396EA5
:10084800000E386E000E3B6E000E3A6E000E336ED0
:10085800000E326E64EF04F0FFFF34043510D8A4A4
:1008680038EF04F03BEF04F0FFFF52EF04F0FFFF16
:100878008C8013EC03F08C90060E2B6EB60E2A6E4D
:10088800F90EFFFFE82EFDD72A2EFBD72B2EF9D71E
:100898008B92FFFF7DEC00F04DEF04F0FFFF8B9093
:1008A80083A859EF04F05CEF04F0FFFF52EF04F067
:1008B800FFFF8B808C8013EC03F08C9078EF04F0B2
:1008C800FFFF36C02AF037C02BF02B50000AD8B4EF
:1008D80070EF04F078EF04F0FFFF2A50010AD8B453
:1008E80030EF04F078EF04F0FFFF1200FFFFFFFF86
:1008F80004EC05F00FEC05F0DFEC04F0FFFF81AC31
:1009080088EF04F08BEF04F0FFFF95EF04F0FFFF92
:10091800000E376E010E366EFFFF1DEC04F082EFFD
:1009280004F0FFFF81A29BEF04F09EEF04F0FFFFAD
:10093800A5EF04F0FFFF000E376E020E366E90EF43
:1009480004F0FFFF81A6ABEF04F0AEEF04F0FFFF69
:10095800B5EF04F0FFFF000E376E030E366E90EF12
:1009680004F0FFFF82EF04F07BEF00F004EE00F0EC
:10097800C80EEE6AE806FDE103EE00F0C80EEE6A66
:10098800E806FDE102EE00F0C80EEE6AE806FDE1B9
:1009980001EE00F0C80EEE6AE806FDE100EE2CF06C
:1009A800100EEE6AE806FDE13C903C92000EF86EEF
:1009B80000017BEF04F0FFFF8B808B8283A8E7EFB9
:1009C80004F0EAEF04F0FFFFF2EF04F0FFFFFFFF8F
:1009D800000E356E010E346E01EF05F0FFFF8B90AF
:1009E800FFFF83A8FAEF04F0FDEF04F0FFFFF4EF38
:1009F80004F0FFFF8B80EBEF04F0FFFF1200FFFF16
:100A0800FFFF060EC16E9368F00E956E9268FC0E9D
:100A1800946E1200FFFFFFFFD09EF28EF28C120040
:040A2800FFFFFFFFCE
:020000040020DA
:08000000FFFFFFFFFFFFFFFF00
:020000040030CA
:0E000000FF220D0EFF0080FF0EC00FE00F402C
:00000001FF
