:0600000000F088EF01F0A2
:10000800FFFF6182E1CF15F0E2CF16F0D9CF17F0EC
:10001800DACF18F04DEF01F0FFFF4D504E10D8B475
:1000280018EF00F01BEF00F0FFFF7CEF01F0FFFF7F
:1000380052BE2AEF00F0525006E15104D8B027EF23
:1000480000F02AEF00F0FFFF7CEF01F0FFFFD890EF
:100058005B34D96E5C34DA6E000ED926030EDA22D0
:10006800010EDE6E000EDD6E5B4A5C2A000E016E2C
:10007800030E026E5BC003F05CC004F02EEC04F0CB
:100088005FC001F060C002F05BC003F05CC004F028
:1000980024EC07F001C019F002C01AF019C05BF097
:1000A8001AC05CF07CEF01F0FFFF4D504E10D8B441
:1000B80060EF00F063EF00F0FFFF7CEF01F0FFFF5F
:1000C80052BE73EF00F0525007E1020E515CD8B0F7
:1000D80070EF00F073EF00F0FFFF7CEF01F0FFFF1F
:1000E800D8905B34D96E5C34DA6E000ED926030ED4
:1000F800DA22020EDE6E000EDD6E5B4A5C2A000E0E
:10010800016E030E026E5BC003F05CC004F02EECBF
:1001180004F0000E016E030E026E5BC003F05CC0BB
:1001280004F024EC07F001C01BF002C01CF01BC057
:100138005BF01CC05CF07CEF01F0FFFF4D504E10EF
:10014800D8B4A9EF00F0ACEF00F0FFFF7CEF01F0AE
:10015800FFFFD8905734D96E5834DA6E000ED9267E
:10016800050EDA22020EDE6E000EDD6E574A582AA0
:10017800000E3A6E010E396E7CEF01F0FFFF4D5014
:100188004E10D8B4CAEF00F0CDEF00F0FFFF7CEFBF
:1001980001F0FFFF52BEDDEF00F0525007E1030E01
:1001A800515CD8B0DAEF00F0DDEF00F0FFFF7CEF34
:1001B80001F0FFFFD8905B34D96E5C34DA6E000E24
:1001C800D926030EDA22030EDE6E000EDD6E5B4AC0
:1001D8005C2A000E016E030E026E5BC003F05CC069
:1001E80004F02EEC04F0000E016E030E026E5BC0EC
:1001F80003F05CC004F024EC07F001C01DF002C05D
:100208001EF01DC05BF01EC05CF07CEF01F0FFFF2C
:100218004D504E10D8B413EF01F016EF01F0FFFF68
:100228007CEF01F0FFFFD8905734D96E5834DA6E5E
:10023800000ED926050EDA22030EDE6E000EDD6EE4
:10024800574A582A000E366E010E356E7CEF01F0C3
:10025800FFFF4D504E10D8B434EF01F037EF01F0E6
:10026800FFFF7CEF01F0FFFFD8905734D96E583468
:10027800DA6E000ED926050EDA22040EDE6E000EA6
:10028800DD6E574A582A000E346E010E336E7CEF2D
:1002980001F0FFFF8150136E146A1450000AD8B49D
:1002A80058EF01F07CEF01F0FFFF1350010AD8B4BA
:1002B80010EF00F0030AD8B458EF00F0060AD8B4DB
:1002C800A1EF00F00C0AD8B47CEF01F0180AD8B4FA
:1002D800C2EF00F0300AD8B40BEF01F0600AD8B4CE
:1002E8002CEF01F0C00AD8B47CEF01F07CEF01F0EC
:1002F800FFFF18C0DAFF17C0D9FF16C0E2FF15C00C
:10030800E1FF61921100FFFFC0EF09F0FFFFF1EF7D
:1003180002F0FFFF83A893EF01F096EF01F0FFFFD3
:1003280012EF03F0FFFF8B82000E856F000E846FC3
:10033800B7EF01F0FFFFD8908435D96E8535DA6EB6
:10034800020ED926030EDA22D8908435E16E85355F
:10035800E26E000EE126030EE222DECFE6FFDDCFDD
:10036800E5FF844B852BFFFF5B50845D8551800A38
:10037800826F5C50800A8259D8A0C5EF01F0C8EF9F
:1003880001F0FFFF9EEF01F0FFFF5B06D8A05C06BF
:100398008C80000E526E010E516E47EC05F08C9069
:1003A800060E0001836FB60E826FF80EFFFFE82E6F
:1003B800FDD7822FFBD7832FF9D700D000F08B927F
:1003C80012EF03F0FFFF83AAECEF01F0EFEF01F06B
:1003D800FFFF12EF03F0FFFF8B828C82000E526E3C
:1003E800020E516E000E876F000E866F15EF02F039
:1003F800FFFFD8908635D96E8735DA6E020ED9267A
:10040800030EDA22D8908635E16E8735E26E000E4B
:10041800E126030EE222DECFE6FFDDCFE5FF864BC5
:10042800872BFFFF5B50865D8751800A826F5C5087
:10043800800A8259D8A023EF02F026EF02F0FFFFCE
:10044800FCEF01F0FFFF5B06D8A05C0647EC05F067
:100458008C92060E0001836FB60E826FF80EFFFFB6
:10046800E82EFDD7822FFBD7832FF9D700D000F0D5
:100478008B9212EF03F0FFFF83AC45EF02F048EFD9
:1004880002F0FFFF12EF03F0FFFF8B828C84000E57
:10049800526E030E516E000E896F000E886F6EEF5C
:1004A80002F0FFFFD8908835D96E8935DA6E020ED2
:1004B800D926030EDA22D8908835E16E8935E26EA6
:1004C800000EE126030EE222DECFE6FFDDCFE5FFD8
:1004D800884B892BFFFF5B50885D8951800A826FAA
:1004E8005C50800A8259D8A07CEF02F07FEF02F0BE
:1004F800FFFF55EF02F0FFFF5B06D8A05C0647EC54
:1005080005F08C94060E0001836FB60E826FF80E0C
:10051800FFFFE82EFDD7822FFBD7832FF9D700D016
:1005280000F08B9212EF03F0FFFF83AE9EEF02F014
:10053800A1EF02F0FFFF12EF03F0FFFF8B828C8622
:10054800000E526E040E516E000E8B6F000E8A6FF5
:10055800C7EF02F0FFFFD8908A35D96E8B35DA6E77
:10056800020ED926030EDA22D8908A35E16E8B3531
:10057800E26E000EE126030EE222DECFE6FFDDCFBB
:10058800E5FF8A4B8B2BFFFF5B508A5D8B51800AFE
:10059800826F5C50800A8259D8A0D5EF02F0D8EF5C
:1005A80002F0FFFFAEEF02F0FFFF5B06D8A05C068B
:1005B80047EC05F08C96060E0001836FB60E826F2D
:1005C800F80EFFFFE82EFDD7822FFBD7832FF9D730
:1005D80000D000F08B9212EF03F0FFFF00C382F00F
:1005E80001C383F000018351000AD8B4FEEF02F082
:1005F80012EF03F0FFFF8251010AD8B48DEF01F02A
:10060800030AD8B4E6EF01F0010AD8B43FEF02F0CC
:10061800070AD8B498EF02F012EF03F0FFFF1200B8
:10062800FFFFFFFF000E0201CB6F000ECA6F000E26
:10063800C96F000EC86F21C0CCF222C0CDF2FFFFF7
:100648001FC0D9FF20C0DAFFDECFD2F2DDCFD3F250
:10065800000ED56F000ED46F7DEF03F0FFFFD8902A
:10066800D435D96ED535DA6E1F50D9262050DA2206
:10067800D251DE1807E1D351DE18D8A446EF03F0B3
:1006880049EF03F0FFFF4EEF03F0FFFFD4C2C8F2BB
:10069800D5C2C9F2FFFFD890D435D96ED535DA6EF8
:1006A8001F50D9262050DA22D251DE5CDE50800A53
:1006B800256ED351800A2558D8B065EF03F068EF4E
:1006C80003F0FFFF7AEF03F0FFFFD890D435D96E1F
:1006D800D535DA6E1F50D9262050DA22DECFD2F275
:1006E800DDCFD3F2D4C2C8F2D5C2C9F2FFFFD44BD2
:1006F800D52BFFFFCC51D45DD551800A236ECD5147
:10070800800A2358D8A08BEF03F08EEF03F0FFFF89
:1007180032EF03F0FFFFC8C2CEF2C9C2CFF2BAEF80
:1007280003F0FFFFCEC223F0CFC224F0D8902336C7
:1007380024361FC025F020C026F02350252624503B
:100748002622020E2524D96E000E2620DA6ED890B5
:10075800CE35E16ECF35E26E1F50E1262050E22201
:10076800DECFE6FFDDCFE5FFCE4BCF2BFFFFCC5131
:10077800CE5DCF51800A236ECD51800A2358D8A070
:10078800C8EF03F0CBEF03F0FFFF95EF03F0FFFF97
:10079800D890CA35D96ECB35DA6E000ED926020E3E
:1007A800DA22D2C2DEFFD3C2DDFFCC07D8A0CD0744
:1007B800CA4BCB2BFF0E236EFF0E246E21C025F0F3
:1007C80022C026F02350252624502622CA51255C13
:1007D8002650800A276ECB51800A2758D8B0F7EFE9
:1007E80003F0FAEF03F0FFFF23EF03F0FFFF000E23
:1007F800D16F000ED06F1AEF04F0FFFFD890D035FC
:10080800D96ED135DA6E000ED926020EDA22D890CA
:10081800D035E16ED135E26E1F50E1262050E2223C
:10082800DECFE6FFDDCFE5FFD04BD12BFFFF215018
:10083800D05DD151800A236E2250800A2358D8A057
:1008480028EF04F02BEF04F0FFFF01EF04F0FFFFA7
:100858001200FFFFFFFF000E0101CB6F000ECA6FF1
:10086800000EC96F000EC86F03C0CCF104C0CDF1F3
:10087800FFFF01C0D9FF02C0DAFFDECFD2F1DDCF22
:10088800D3F1000ED56F000ED46F96EF04F0FFFF82
:10089800D890D435D96ED535DA6E0150D9260250A4
:1008A800DA22D251DE1807E1D351DE18D8A45FEF5F
:1008B80004F062EF04F0FFFF67EF04F0FFFFD4C11C
:1008C800C8F1D5C1C9F1FFFFD890D435D96ED53557
:1008D800DA6E0150D9260250DA22D251DE5CDE509F
:1008E800800A076ED351800A0758D8B07EEF04F00B
:1008F80081EF04F0FFFF93EF04F0FFFFD890D435A9
:10090800D96ED535DA6E0150D9260250DA22DECFFB
:10091800D2F1DDCFD3F1D4C1C8F1D5C1C9F1FFFF00
:10092800D44BD52BFFFFCC51D45DD551800A056E31
:10093800CD51800A0558D8A0A4EF04F0A7EF04F021
:10094800FFFF4BEF04F0FFFFC8C1CEF1C9C1CFF1E3
:10095800D3EF04F0FFFFCEC105F0CFC106F0D89069
:100968000536063601C007F002C008F00550072614
:1009780006500822020E0724D96E000E0820DA6EEF
:10098800D890CE35E16ECF35E26E0150E1260250A7
:10099800E222DECFE6FFDDCFE5FFCE4BCF2BFFFF18
:1009A800CC51CE5DCF51800A056ECD51800A0558D5
:1009B800D8A0E1EF04F0E4EF04F0FFFFAEEF04F09D
:1009C800FFFFD890CA35D96ECB35DA6E000ED9261E
:1009D800010EDA22D2C1DEFFD3C1DDFFCC07D8A0D9
:1009E800CD07CA4BCB2BFF0E056EFF0E066E03C05C
:1009F80007F004C008F00550072606500822CA511F
:100A0800075C0850800A096ECB51800A0958D8B093
:100A180010EF05F013EF05F0FFFF3CEF04F0FFFFC8
:100A2800000ED16F000ED06F33EF05F0FFFFD890A6
:100A3800D035D96ED135DA6E000ED926010EDA22FC
:100A4800D890D035E16ED135E26E0150E1260250E2
:100A5800E222DECFE6FFDDCFE5FFD04BD12BFFFF53
:100A68000350D05DD151800A056E0450800A0558A4
:100A7800D8A041EF05F044EF05F0FFFF1AEF05F0AD
:100A8800FFFF1200FFFFFFFFFFFF80A04EEF05F002
:100A980051EF05F0FFFF82EF05F0FFFF52BE60EF58
:100AA80005F0525006E15104D8B05DEF05F060EF53
:100AB80005F0FFFF72EF05F0FFFFD8905B34D96EA9
:100AC8005C34DA6E000ED926030EDA22010EDE6ED1
:100AD800000EDD6E5B4A5C2A82EF05F0FFFFD890BE
:100AE8005D34D96E5E34DA6E000ED926040EDA2231
:100AF800010EDE6E000EDD6E5D4A5E2AFFFF80A2EB
:100B080088EF05F08BEF05F0FFFFBDEF05F0FFFF65
:100B180052BE9BEF05F0525007E1020E515CD8B06F
:100B280098EF05F09BEF05F0FFFFADEF05F0FFFF35
:100B3800D8905B34D96E5C34DA6E000ED926030E79
:100B4800DA22020EDE6E000EDD6E5B4A5C2ABDEF15
:100B580005F0FFFFD8905D34D96E5E34DA6E000E72
:100B6800D926040EDA22020EDE6E000EDD6E5D4A14
:100B78005E2AFFFF80A4C3EF05F0C6EF05F0FFFF74
:100B8800F8EF05F0FFFF52BED6EF05F0525007E12F
:100B9800030E515CD8B0D3EF05F0D6EF05F0FFFF98
:100BA800E8EF05F0FFFFD8905B34D96E5C34DA6E5D
:100BB800000ED926030EDA22030EDE6E000EDD6E5D
:100BC8005B4A5C2AF8EF05F0FFFFD8905D34D96ED8
:100BD8005E34DA6E000ED926040EDA22030EDE6EBB
:100BE800000EDD6E5D4A5E2AFFFF80A6FEEF05F06F
:100BF80001EF06F0FFFF33EF06F0FFFF52BE11EFE3
:100C080006F0525007E1040E515CD8B00EEF06F022
:100C180011EF06F0FFFF23EF06F0FFFFD8905B34DB
:100C2800D96E5C34DA6E000ED926030EDA22040E71
:100C3800DE6E000EDD6E5B4A5C2A33EF06F0FFFFC6
:100C4800D8905D34D96E5E34DA6E000ED926040E63
:100C5800DA22040EDE6E000EDD6E5D4A5E2AFFFFAC
:100C680080A839EF06F03CEF06F0FFFF48EF05F0EB
:100C7800FFFF000E1F6E030E206E5BC021F05CC0EC
:100C880022F015EC03F0000E1F6E030E206E5BC001
:100C980021F05CC022F07FEC08F01FC080F020C07B
:100CA80081F080C05BF081C05CF01200FFFFFFFFA5
:100CB8008AEC01F05B505C10D8A465EF06F068EF91
:100CC80006F0FFFF21EF07F0FFFF5EBE77EF06F0AB
:100CD8005E5006E15D04D8B074EF06F077EF06F0D9
:100CE800FFFF86EF06F0FFFF58BE83EF06F058506F
:100CF80009E15704D8A083EF06F086EF06F0FFFF5E
:100D080018EF07F0FFFF000E00018F6F000E8E6FC7
:100D1800ADEF06F0FFFFD8908E35D96E8F35DA6EBD
:100D2800000ED926050EDA228E515D248C6F8F5164
:100D38005E208D6FD8908C378D37000E8C25E16E34
:100D4800040E8D21E26EDECFE6FFDDCFE5FF8E4B90
:100D58008F2BFFFF57508E5D8F51800A8C6F585034
:100D6800800A8C59D8A0BBEF06F0BEEF06F0FFFF53
:100D78008EEF06F0FFFF000E1F6E040E206E575018
:100D88005D24216E58505E20226E15EC03F0000E93
:100D98001F6E040E206E57505D24216E58505E2041
:100DA800226E7FEC08F01FC05DF020C05EF000C42A
:100DB80053F001C454F0000E0001916F000E906FC3
:100DC800FFEF06F0FFFFD8909035D96E9135DA6EB7
:100DD800020ED926040EDA22D8909035E16E9135AC
:100DE800E26E000EE126040EE222DECFE6FFDDCF42
:100DF800E5FF904B912BFFFF5D50905D9151800A6C
:100E08008C6F5E50800A8C59D8A00DEF07F010EF58
:100E180007F0FFFFE6EF06F0FFFF5D06D8A05E06CD
:100E2800DFEC09F021EF07F0FFFF000E566E000E11
:100E3800556E000E4E6E000E4D6EFFFF1200FFFF46
:100E4800FFFF03C00FF004C010F0000E0E6E000E7E
:100E58000D6EB9EF07F0FFFF010E0D24116E000EA5
:100E68000E20126EA5EF07F0FFFFD8901134D96E4F
:100E78001234DA6E0150D9260250DA22D8900D3495
:100E8800E16E0E34E26E0150E1260250E222DE509D
:100E9800E61807E1DE50E618D8A455EF07F058EF3A
:100EA80007F0FFFFA2EF07F0FFFF11C009F012C023
:100EB8000AF011C00BF012C00CF08AEF07F0FFFF28
:100EC8000BC005F00CC006F0D8900536063601C0F8
:100ED80007F002C008F00550072606500822020E47
:100EE8000724D96E000E0820DA6ED8900934E16E16
:100EF8000A34E26E0150E1260250E222DECFE6FF1C
:100F0800DDCFE5FF094A0A2A0B4A0C2AFFFF0F50DA
:100F18000B5C0C50800A056E1050800A0558D8A04A
:100F280098EF07F09BEF07F0FFFF63EF07F0FFFF75
:100F38000F06D8A010061106D8A01206FFFF114A06
:100F4800122AFFFF0F50115C1250800A056E1050D4
:100F5800800A0558D8A0B3EF07F0B6EF07F0FFFFF7
:100F680038EF07F0FFFF0D4A0E2AFFFF0F500D5C08
:100F78000E50800A056E1050800A0558D8A0C7EF99
:100F880007F0CAEF07F0FFFF2FEF07F0FFFF0FC0D2
:100F980001F010C002F01200FFFFFFFFFFFF000E7C
:100FA8004C6E000E4B6E000E4E6E010E4D6E000E16
:100FB800586E000E576E000E5A6E000E596E000ED7
:100FC8005E6E000E5D6E63EF08F0FFFF5104521075
:100FD800D8A4F1EF07F0F4EF07F0FFFF0EEF08F0E9
:100FE800FFFF8C8047EC05F08C90060E0001936F94
:100FF800B60E926FF80EFFFFE82EFDD7922FFBD7A3
:10100800932FF9D700D000F08B92FFFF5BEC06F02E
:1010180009EF08F0FFFF8B9083A815EF08F018EF91
:1010280008F0FFFF0EEF08F0FFFF8B808C8047EC85
:1010380005F08C90FFFF020E51185210D8A427EF2C
:1010480008F02AEF08F0FFFF44EF08F0FFFF8C825A
:1010580047EC05F08C92060E0001936FB60E926F66
:10106800F80EFFFFE82EFDD7922FFBD7932FF9D765
:1010780000D000F08B92FFFF5BEC06F03FEF08F02A
:10108800FFFF52BE54EF08F0525007E1020E515CC8
:10109800D8B051EF08F054EF08F0FFFF7CEF08F0EC
:1010A800FFFFFFFF8B9283AA5CEF08F05FEF08F069
:1010B800FFFF55EF08F0FFFF8B927CEF08F0FFFF72
:1010C80055C092F056C093F000019351000AD8B46D
:1010D80070EF08F07CEF08F0FFFF9251010AD8B4D6
:1010E800E9EF07F0030AD8B41EEF08F07CEF08F028
:1010F800FFFF1200FFFFFFFF21C02DF022C02EF0DE
:10110800000E2C6E000E2B6E14EF09F0FFFF010E7F
:101118002B242F6E000E2C20306E00EF09F0FFFFFD
:10112800D8902F34D96E3034DA6E1F50D92620501B
:10113800DA22D8902B34E16E2C34E26E1F50E1266F
:101148002050E222DE50E61807E1DE50E618D8A467
:10115800B0EF08F0B3EF08F0FFFFFDEF08F0FFFF76
:101168002FC027F030C028F02FC029F030C02AF057
:10117800E5EF08F0FFFF29C023F02AC024F0D8903B
:10118800233624361FC025F020C026F023502526FC
:1011980024502622020E2524D96E000E2620DA6E4F
:1011A800D8902734E16E2834E26E1F50E126205093
:1011B800E222DECFE6FFDDCFE5FF274A282A294ACB
:1011C8002A2AFFFF2D50295C2A50800A236E2E50B0
:1011D800800A2358D8A0F3EF08F0F6EF08F0FFFFD5
:1011E800BEEF08F0FFFF2D06D8A02E062F06D8A0C8
:1011F8003006FFFF2F4A302AFFFF2D502F5C30505A
:10120800800A236E2E50800A2358D8A00EEF09F0CA
:1012180011EF09F0FFFF93EF08F0FFFF2B4A2C2A8C
:10122800FFFF2D502B5C2C50800A236E2E50800A15
:101238002358D8A022EF09F025EF09F0FFFF8AEF25
:1012480008F0FFFF2DC01FF02EC020F01200FFFF96
:10125800FFFF6CEC09F0F2EC09F09BEC09F0FFFFE2
:1012680081A039EF09F03CEF09F0FFFF46EF09F0E4
:10127800FFFF000E566E010E556EFFFFD2EC07F011
:1012880066EF09F0FFFF81A24CEF09F04FEF09F07C
:10129800FFFF56EF09F0FFFF000E566E020E556E67
:1012A80041EF09F0FFFF81A85CEF09F05FEF09F05B
:1012B800FFFF66EF09F0FFFF000E566E030E556E36
:1012C80041EF09F0FFFF815033EF09F088EF01F09B
:1012D800FFFF060EC16E9368F00E956E9268FC0EC5
:1012E800946E000E5E6E000E5D6E000E5C6E000E5B
:1012F8005B6E000E5A6E000E596E000E586E000E90
:10130800576E000E566E000E556E000E526E000E91
:10131800516E000E4E6E000E4D6E000E4C6E000E9D
:101328004B6E000E5F6E030E606E1200FFFFFFFF34
:101338008B808B8283A8A3EF09F0A6EF09F0FFFF4B
:10134800AEEF09F0FFFFFFFF000E526E010E516E67
:10135800BDEF09F0FFFF8B90FFFF83A8B6EF09F000
:10136800B9EF09F0FFFFB0EF09F0FFFF8B80A7EF9F
:1013780009F0FFFF1200FFFF05EE00F0C80EEE6A4D
:10138800E806FDE104EE00F0C80EEE6AE806FDE1AD
:1013980003EE00F0C80EEE6AE806FDE100EE31F05B
:1013A8002E0EEE6AE806FDE161906192000EF86E7D
:1013B80000012CEF09F0FFFF000E4E6E000E4D6E7F
:1013C800000E4C6E010E4B6E000E586E000E576EDE
:1013D800000E5C6E000E5B6E1200FFFFFFFFD09EDA
:0A13E800F28EF28C1200FFFFFFFFEF
:020000040020DA
:08000000FFFFFFFFFFFFFFFF00
:020000040030CA
:0E000000FF220D0EFF0080FF0EC00FE00F402C
:00000001FF
