:0600000000F0BAEF04F06D
:1005C600FFFF0108FFFF1200FFFFFFFF60EC03F0D3
:1005D600C5801200FFFFFFFF60EC03F0C584120028
:1005E600FFFFFFFF010E0BEC03F0320EFFFFE82EBC
:1005F600FDD71200FFFFFFFF280EC66E000EC56E68
:10060600000EC76E310EC86E948694881200FFFFE6
:10061600FFFF056E000E7F6E0550F00B4DEC03F0EC
:100626000538F00BF00B4DEC03F01200FFFFFFFF57
:10063600056E010E7F6E0550F00B4DEC03F005388C
:10064600F00BF00B4DEC03F01200FFFFFFFF036E03
:10065600E8EC02F0000196513AEC03F00350000179
:10066600E4113AEC03F0EEEC02F01200FFFFFFFF9C
:10067600026E60EC03F002C0C9FFFFFF9EA646EFC4
:1006860003F049EF03F0FFFF40EF03F0FFFF9E96F4
:100696001200FFFFFFFF046E7F500412045004098E
:1006A60029EC03F00450FB0B29EC03F03E0EFFFF90
:1006B600E82EFDD700D01200FFFFFFFFFFFFC7B4F3
:1006C60067EF03F06AEF03F0FFFF61EF03F0FFFF50
:1006D600C5CF01F01F0E0116D8A474EF03F077EF13
:1006E60003F0FFFF61EF03F0FFFF1200FFFFFFFFC4
:1006F60001C003F002C004F084EF03F0FFFF014ADB
:10070600022AFFFF01C0D9FF02C0DAFFDF50D8A4DA
:100716008FEF03F092EF03F0FFFF81EF03F0FFFF8F
:100726000350015C016E04500258026E1200FFFF76
:10073600FFFF14BEAAEF03F0145006E11304D8B06D
:10074600A7EF03F0AAEF03F0FFFFB9EF03F0FFFFF7
:1007560013C015F014C016F0151E161E154A162ADB
:1007660015C013F016C014F0BEEF03F0FFFF13C060
:1007760013F014C014F0FFFF1200FFFFFFFF000E7E
:10078600106E000E0F6ED4EF03F0FFFF0EC001F0E7
:10079600026A0CC003F00DC004F079EC05F00F4AB4
:1007A600102AFFFF0F500A24D96E10500B20DA6E64
:1007B600DF500E6E0E50D8A4E3EF03F0E6EF03F021
:1007C600FFFFC8EF03F0FFFF1200FFFFFFFF5C0E05
:1007D6005E6E000E5F6E58C060F059C061F0000E8C
:1007E600636E000E626E000E656E000E646E600E25
:1007F600506E000E516E5AC052F05BC053F05E0E42
:10080600546E000E556E48EC04F062505824D96EB2
:1008160063505920DA6E000EDF6E1200FFFFFFFFF5
:100826008B808B828C908C928C948C963A0E026E76
:100836001C0E016EC40EFFFFE82EFDD7012EFBD75E
:10084600022EF9D783A82AEF04F02DEF04F0FFFF5C
:1008560036EF04F0FFFFFFFF000E00018F6F010E61
:100866008E6F45EF04F0FFFF8B90FFFF83A83EEFEE
:1008760004F041EF04F0FFFF38EF04F0FFFF8B8038
:100886002EEF04F0FFFF1200FFFFFFFF52C056F0ED
:1008960053C057F0000E0001816F000E806F68EFA5
:1008A60004F0FFFF50C040F051C041F0560E426EBA
:1008B600000E436E54C044F055C045F00BEC0AF0F0
:1008C60040500001802741508123FFFF56C0F6FFAC
:1008D60057C0F7FF0800FFFFF5500009D8A476EFD0
:1008E60004F079EF04F0FFFF54EF04F0FFFF80C03F
:1008F60050F081C051F01200FFFFFFFF060EC16EDF
:100906009368F00E956E9268FC0E946E000E7E6EE5
:10091600000E7D6E000E7C6E000E7B6E000E0001DA
:10092600956F000E946F000E936F000E926F000E7F
:10093600916F000E906F000E8F6F000E8E6F000E7F
:100946000101D96F000ED86F000ED76F000ED66F5B
:10095600000E00018D6F000E8C6F000E8B6F000E67
:100966008A6F000E896F000E886F1200FFFFC80E97
:10097600F66E050EF76E000EF86E0900F5CFE3F081
:100986000900F5CFE4F005EE00F0C80EEE6AE806C1
:10099600FDE104EE00F0C80EEE6AE806FDE103EEA6
:1009A60000F0C80EEE6AE806FDE102EE00F0C80EA1
:1009B600EE6AE806FDE101EED6F0240EEE6AE806E0
:1009C600FDE100EE80F03F0EEE6AE806FDE17F6A8B
:1009D6007E6A7D6A7C6A7B6A000EF86E000132EFE1
:1009E60011F0FFFF096E14EF05F0FFFF0650BF0F71
:1009F6000BEC03F02FEF05F0FFFF0650930F0BEC07
:100A060003F02FEF05F0FFFF0650D30F0BEC03F0BA
:100A16002FEF05F0FFFF06507F0F0BEC03F02FEFD3
:100A260005F0FFFF0950076E086A0850000AD8B49F
:100A36001FEF05F00DEF05F0FFFF0750020AD8B4CF
:100A4600F8EF04F0010AD8B4FFEF04F0070AD8B4AF
:100A560006EF05F00DEF05F0FFFF1200FFFFFFFFA9
:100A6600000E0B6E000E0A6E55EF05F0FFFF0A50E2
:100A76000624086E0B500720096E08C0F6FF09C051
:100A8600F7FFF86A050EF76404D00800FFFFF5507B
:100A960005D0F6CFE1FFF7CFE2FFE7501AEC03F0FF
:100AA6000A4A0B2AFFFF0A500624086E0B5007203D
:100AB600096E08C0F6FF09C0F7FFF86A050EF7646D
:100AC60004D00800FFFFF55005D0F6CFE1FFF7CFC1
:100AD600E2FFE7500009D8A473EF05F076EF05F0C2
:100AE600FFFF39EF05F0FFFF1200FFFFFFFF035086
:100AF6000410D8B481EF05F084EF05F0FFFF8FEF07
:100B060005F0FFFF03500410D8A48CEF05F08FEF1B
:100B160005F0FFFF95EF05F0FFFF0150E5EC02F051
:100B2600E7EF05F0FFFF20EE04F00350D92604504E
:100B3600DA22DE50DE10D8B4A3EF05F0A6EF05F0FA
:100B4600FFFFC3EF05F0FFFF20EE04F00350D926A8
:100B56000450DA2210EE02F00350E1260450E2229D
:100B6600DE50E65CE650800A096EDE50800A0958BF
:100B7600D8B0C0EF05F0C3EF05F0FFFFE7EF05F0D3
:100B8600FFFF20EE02F00350D9260450DA22DECF12
:100B960005F0DDCF06F003C0D9FF04C0DAFFDECFD3
:100BA60007F0DDCF08F005500724D96E065008205F
:100BB600DA6E01C0DFFF20EE02F00350D9260450A2
:100BC600DA22DE2A000EDD22FFFF1200FFFFFFFF02
:100BD600000186A1F1EF05F0F4EF05F0FFFFFFEF4E
:100BE60005F0FFFF13C00AF014C00BF011C00CF0A3
:100BF60012C00DF0C1EC03F0FFFF16BE05EF06F0C4
:100C060008EF06F0FFFF0FEF06F0FFFF15C01AF022
:100C160016C01BF014EF06F0FFFF000E1B6E000E51
:100C26001A6EFFFF000E196E000E186E28EF06F002
:100C3600FFFF000E026E200E016E11C003F012C0FF
:100C460004F079EC05F0184A192AFFFF1A50185CCF
:100C56001950800A176E1B50800A1758D8A036EF15
:100C660006F039EF06F0FFFF1BEF06F0FFFF00016D
:100C760086B140EF06F043EF06F0FFFF4EEF06F0B9
:100C8600FFFF13C00AF014C00BF011C00CF012C025
:100C96000DF0C1EC03F0FFFF13C001F014C002F029
:100CA6007AEC03F01A500124116E1B500220126ECA
:100CB6001200FFFFFFFF086E08C096F0000E29EC39
:100CC60003F0930E066E320EFFFFE82EFDD7062EBA
:100CD600FBD7030E0BEC03F0190E066E5D0EFFFF3D
:100CE600E82EFDD7062EFBD7030E0BEC03F0190EEC
:100CF600066E5D0EFFFFE82EFDD7062EFBD7030E10
:100D06000BEC03F0190E066E5D0EFFFFE82EFDD705
:100D1600062EFBD7020E0BEC03F0190E066E5D0EC7
:100D2600FFFFE82EFDD7062EFBD7280E0BEC03F0AF
:100D3600010E076EF40E066EA80EFFFFE82EFDD715
:100D4600062EFBD7072EF9D700D00C0E0BEC03F0BE
:100D5600010E076EF40E066EA80EFFFFE82EFDD7F5
:100D6600062EFBD7072EF9D700D0010E0BEC03F0A9
:100D7600010E076EF40E066EA80EFFFFE82EFDD7D5
:100D8600062EFBD7072EF9D700D0060E0BEC03F084
:100D9600010E076EF40E066EA80EFFFFE82EFDD7B5
:100DA600062EFBD7072EF9D700D01200FFFFFFFF54
:100DB60003C00FF004C010F0000E0E6E000E0D6E94
:100DC6006FEF07F0FFFF010E0D24116E000E0E20CF
:100DD600126E5BEF07F0FFFFD8901134D96E123414
:100DE600DA6E0150D9260250DA22D8900D34E16E1F
:100DF6000E34E26E0150E1260250E222DE50E61881
:100E060007E1DE50E618D8A40BEF07F00EEF07F067
:100E1600FFFF58EF07F0FFFF11C009F012C00AF0FC
:100E260011C00BF012C00CF040EF07F0FFFF0BC033
:100E360005F00CC006F0D8900536063601C007F05E
:100E460002C008F00550072606500822020E0724A5
:100E5600D96E000E0820DA6ED8900934E16E0A3495
:100E6600E26E0150E1260250E222DECFE6FFDDCF40
:100E7600E5FF094A0A2A0B4A0C2AFFFF0F500B5CB2
:100E86000C50800A056E1050800A0558D8A04EEF07
:100E960007F051EF07F0FFFF19EF07F0FFFF0F060E
:100EA600D8A010061106D8A01206FFFF114A122A72
:100EB600FFFF0F50115C1250800A056E1050800A19
:100EC6000558D8A069EF07F06CEF07F0FFFFEEEFCB
:100ED60006F0FFFF0D4A0E2AFFFF0F500D5C0E5065
:100EE600800A056E1050800A0558D8A07DEF07F0DD
:100EF60080EF07F0FFFFE5EF06F0FFFF0FC001F000
:100F060010C002F01200FFFFFFFF000E126E08BEB7
:100F160092EF07F08FEF07F0FFFFA5EF07F0FFFF57
:100F2600081E071E061E051E041E031E021E016C59
:100F3600000E02220322042205220622072208228C
:100F4600010E126EFFFF10BEAEEF07F0ABEF07F01B
:100F5600FFFFBFEF07F0FFFF101E0F1E0E1E0D1E38
:100F66000C1E0B1E0A1E096C000E0A220B220C22F6
:100F76000D220E220F221022FFFF09500A100B101D
:100F86000C100D100E100F101010D8B4CDEF07F086
:100F9600D0EF07F0FFFF21EF08F0FFFF010E116E03
:100FA600E0EF07F0FFFFD89009360A360B360C360D
:100FB6000D360E360F361036112AFFFF10AEE6EF4D
:100FC60007F0E9EF07F0FFFFD5EF07F0FFFFFFFFA0
:100FD6000950015C0A5002580B5003580C50045833
:100FE6000D5005580E5006580F5007581050085807
:100FF600D8A000EF08F003EF08F0FFFF14EF08F0A9
:10100600FFFF0950015E0A50025A0B50035A0C505A
:10101600045A0D50055A0E50065A0F50075A1050D2
:10102600085AFFFFD89010320F320E320D320C32B2
:101036000B320A320932112EEAEF07F0FFFF125087
:10104600D8B428EF08F02BEF08F0FFFF3CEF08F0CC
:10105600FFFF081E071E061E051E041E031E021E97
:10106600016C000E02220322042205220622072218
:101076000822FFFF01C001F002C002F003C003F026
:1010860004C004F005C005F006C006F007C007F06E
:1010960008C008F01200FFFFFFFF000E126E10BE20
:1010A6005AEF08F057EF08F0FFFF6DEF08F0FFFF6B
:1010B600101E0F1E0E1E0D1E0C1E0B1E0A1E096C88
:1010C600000E0A220B220C220D220E220F221022C3
:1010D600010E126EFFFF08BE76EF08F073EF08F000
:1010E600FFFF89EF08F0FFFF081E071E061E051EFC
:1010F600041E031E021E016C000E0222032204229D
:101106000522062207220822010E121AFFFF20EEF0
:1011160013F0070EDE6AE806FDE209500A100B100E
:101126000C100D100E100F101010D8B49DEF08F013
:10113600A0EF08F0FFFFFBEF08F0FFFF010E116EB6
:10114600B0EF08F0FFFFD89009360A360B360C369A
:101156000D360E360F361036112AFFFF10AEB6EFDB
:1011660008F0B9EF08F0FFFFA5EF08F0FFFFFFFF5B
:10117600D8901336143615361636173618361936ED
:101186001A360950015C0A5002580B5003580C508D
:1011960004580D5005580E5006580F500758105059
:1011A6000858D8A0D9EF08F0DCEF08F0FFFFEEEF03
:1011B60008F0FFFF0950015E0A50025A0B50035A0D
:1011C6000C50045A0D50055A0E50065A0F50075A25
:1011D6001050085A1380FFFFD89010320F320E328B
:1011E6000D320C320B320A320932112EBAEF08F0E8
:1011F600FFFF1250D8B402EF09F005EF09F0FFFF28
:1012060016EF09F0FFFF1A1E191E181E171E161ECE
:10121600151E141E136C000E1422152216221722F8
:10122600182219221A22FFFF13C001F014C002F07F
:1012360015C003F016C004F017C005F018C006F07C
:1012460019C007F01AC008F01200FFFFFFFF0001E7
:10125600DF05E011D8A432EF09F035EF09F0FFFF02
:101266009AEF09F0FFFF8B92F4EC02F0010E066E86
:10127600010EF4EC04F0CD0E066E7F0E076E32EC16
:1012860005F0000E746E000E736E71EF09F0FFFF2D
:10129600970E586E000E596EFC0E5A6E7F0E5B6EE0
:1012A600D8907334D96E7434DA6E000ED926020ED5
:1012B600DA22DECF5CF0DDCF5DF0E9EC03F0E3C0CF
:1012C60006F0020EF4EC04F0970E066E000E076EA2
:1012D60032EC05F00001E32B734A742AFFFF7B50C2
:1012E600735C7450800A726E7C50800A7258D8A063
:1012F6007FEF09F082EF09F0FFFF4AEF09F0FFFFE9
:10130600010E0001E36FFFFFF9EC0AF06850691067
:10131600D8B490EF09F093EF09F0FFFF86EF09F0DC
:10132600FFFF8B808B828B808B8208EF0AF0FFFF9A
:10133600DF51E011D8A4A2EF09F0A5EF09F0FFFFF5
:1013460008EF0AF0FFFF8B90F4EC02F0010E066E38
:10135600010EF4EC04F07E0E066E7F0E076E32EC84
:1013660005F0000E766E000E756EE1EF09F0FFFFD8
:10137600970E586E000E596EFC0E5A6E7F0E5B6EFF
:10138600D8907534D96E7634DA6E000ED926030EEF
:10139600DA22DECF5CF0DDCF5DF0E9EC03F0E3C0EE
:1013A60006F0020EF4EC04F0970E066E000E076EC1
:1013B60032EC05F00001E32B754A762AFFFF7D50DB
:1013C600755C7650800A726E7E50800A7258D8A07C
:1013D600EFEF09F0F2EF09F0FFFFBAEF09F0FFFFB8
:1013E600010E0001E36FFFFF36EC0EF06850691046
:1013F600D8B400EF0AF003EF0AF0FFFFF6EF09F0AA
:10140600FFFF8B808B828B808B82FFFF1200FFFF9A
:10141600FFFF42C0D9FF43C0DAFFDECFF6FFDDCFC4
:10142600F7FF0800FFFFF550250AD8A41DEF0AF0C4
:1014360020EF0AF0FFFFD9EF0AF0FFFF42C0D9FF05
:1014460043C0DAFFDE2A000EDD22000E0001836FA4
:10145600000E826F82C086F083C087F0846985693A
:1014660042C0D9FF43C0DAFFDECFF6FFDDCFF7FF7C
:101476000800FFFFF550640AD8B444EF0AF047EFBE
:101486000AF0FFFF5CEF0AF0FFFF42C0D9FF43C03E
:10149600DAFFDECFF6FFDDCFF7FF0800FFFFF550DE
:1014A600690AD8A459EF0AF05CEF0AF0FFFF9DEF36
:1014B6000AF0FFFF42C0D9FF43C0DAFFDE2A000E62
:1014C600DD2244C0D9FF45C0DAFFDFCF46F0020E69
:1014D600DE26DFCF47F0000EDD2246C0D9FF47C02B
:1014E600DAFFDECF48F0DDCF49F0000E49BEFF0E31
:1014F6004A6E4B6E4C6E4D6E4E6E4F6E40C01CF07B
:1015060041C01DF048C01EF049C01FF04AC020F07F
:101516004BC021F04CC022F04DC023F04EC024F049
:101526004FC025F097EC0FF01CC040F01DC041F0F5
:10153600F6EF0AF0FFFF42C0D9FF43C0DAFFDECF65
:10154600F6FFDDCFF7FF0800FFFFF550250AD8A408
:10155600AFEF0AF0B2EF0AF0FFFFCBEF0AF0FFFFA2
:1015660042C0D9FF43C0DAFFDE2A000EDD22000E9C
:10157600026E250E016E40C003F041C004F079EC06
:1015860005F0FFFF000E416E010E406EF6EF0AF009
:10159600FFFF42C0D9FF43C0DAFFDE2A000EDD227C
:1015A600000E416E000E406EF6EF0AF0FFFF42C0DD
:1015B600D9FF43C0DAFFDECFF6FFDDCFF7FF080025
:1015C600FFFFF550016E026A40C003F041C004F00F
:1015D60079EC05F042C0D9FF43C0DAFFDE2A000EDF
:1015E600DD22C4EF0AF0FFFF1200FFFFFFFF7DECD4
:1015F60019F07B507C10D8A403EF0BF006EF0BF02C
:10160600FFFFFCEF0BF0FFFFF4EC02F0010E066E9D
:10161600010EF4EC04F0960E066E7F0E076E32ECA9
:1016260005F0270E6B6E130E6A6E820EFFFFE82E14
:10163600FDD76A2EFBD76B2EF9D77EBE2EEF0BF0A9
:101646007E5006E17D04D8B02BEF0BF02EEF0BF0A9
:10165600FFFF3EEF0BF0FFFF000193BF3BEF0BF0E8
:10166600935109E19205D8A03BEF0BF03EEF0BF04A
:10167600FFFFE8EF0BF0FFFF010E066E020EF4EC23
:1016860004F0D70E066E7F0E076E32EC05F0F4EC12
:1016960002F0000E6D6E000E6C6E71EF0BF0FFFF28
:1016A600D8906C34D96E6D34DA6E000ED926040EDD
:1016B600DA226C507D246A6E6D507E206B6ED89057
:1016C6006A366B36000E6A24E16E030E6B20E26EFC
:1016D600DECFE6FFDDCFE5FF6C4A6D2AFFFF000196
:1016E60092516C5C6D50800A6A6E9351800A6A58FA
:1016F600D8A080EF0BF083EF0BF0FFFF52EF0BF05B
:10170600FFFF000E016E030E026E92517D24036EE2
:1017160093517E20046E1DEC0DF0000E016E030E3B
:10172600026E000192517D24036E93517E20046E59
:10173600DAEC06F001C07DF002C07EF000C390F046
:1017460001C391F0000E6F6E000E6E6EC4EF0BF0CB
:10175600FFFFD8906E34D96E6F34DA6E020ED9263A
:10176600030EDA22D8906E34E16E6F34E26E000E0C
:10177600E126030EE222DECFE6FFDDCFE5FF6E4A6D
:101786006F2AFFFF7D506E5C6F50800A6A6E7E5036
:10179600800A6A58D8A0D2EF0BF0D5EF0BF0FFFF06
:1017A600ABEF0BF0FFFF7D06D8A07E06000E000112
:1017B6008B6F010E8A6F000E896F000E886F000E08
:1017C600696E010E686E01EF0CF0FFFF000E916F5F
:1017D600000E906F000E0101D76F000ED66F000E3F
:1017E6007C6E000E7B6E000E696E010E686E01EF58
:1017F6000CF0FFFF000E696E000E686EFFFF120010
:10180600FFFFFFFF000E0101CB6F000ECA6F000E37
:10181600C96F000EC86F03C0CCF104C0CDF1FFFF45
:1018260001C0D9FF02C0DAFFDECFD2F1DDCFD3F19E
:10183600000ED56F000ED46F6CEF0CF0FFFFD89042
:10184600D435D96ED535DA6E0150D9260250DA2252
:10185600D251DE1807E1D351DE18D8A435EF0CF0CB
:1018660038EF0CF0FFFF3DEF0CF0FFFFD4C1C8F1DD
:10187600D5C1C9F1FFFFD890D435D96ED535DA6E0A
:101886000150D9260250DA22D251DE5CDE50800A9F
:10189600076ED351800A0758D8B054EF0CF057EFB3
:1018A6000CF0FFFF69EF0CF0FFFFD890D435D96E2E
:1018B600D535DA6E0150D9260250DA22DECFD2F1C2
:1018C600DDCFD3F1D4C1C8F1D5C1C9F1FFFFD44BE7
:1018D600D52BFFFFCC51D45DD551800A056ECD5175
:1018E600800A0558D8A07AEF0CF07DEF0CF0FFFFC8
:1018F60021EF0CF0FFFFC8C1CEF1C9C1CFF1A9EFAE
:101906000CF0FFFFCEC105F0CFC106F0D89005362A
:10191600063601C007F002C008F00550072606503B
:101926000822020E0724D96E000E0820DA6ED8901F
:10193600CE35E16ECF35E26E0150E1260250E2224D
:10194600DECFE6FFDDCFE5FFCE4BCF2BFFFFCC5141
:10195600CE5DCF51800A056ECD51800A0558D8A0BC
:10196600B7EF0CF0BAEF0CF0FFFF84EF0CF0FFFFBF
:10197600D890CA35D96ECB35DA6E000ED926010E4F
:10198600DA22D2C1DEFFD3C1DDFFCC07D8A0CD0756
:10199600CA4BCB2BFF0E056EFF0E066E03C007F07B
:1019A60004C008F00550072606500822CA51075CF5
:1019B6000850800A096ECB51800A0958D8B0E6EF64
:1019C6000CF0E9EF0CF0FFFF12EF0CF0FFFF000E3A
:1019D600D16F000ED06F09EF0DF0FFFFD890D03514
:1019E600D96ED135DA6E000ED926010EDA22D890DC
:1019F600D035E16ED135E26E0150E1260250E22289
:101A0600DECFE6FFDDCFE5FFD04BD12BFFFF035046
:101A1600D05DD151800A056E0450800A0558D8A0C1
:101A260017EF0DF01AEF0DF0FFFFF0EF0CF0FFFFD0
:101A36001200FFFFFFFF000E0101CB6F000ECA6F01
:101A4600000EC96F000EC86F03C0CCF104C0CDF103
:101A5600FFFF01C0D9FF02C0DAFFDECFD2F1DDCF32
:101A6600D3F1000ED56F000ED46F85EF0DF0FFFF9A
:101A7600D890D435D96ED535DA6E0150D9260250B4
:101A8600DA22D251DE1807E1D351DE18D8A44EEF80
:101A96000DF051EF0DF0FFFF56EF0DF0FFFFD4C133
:101AA600C8F1D5C1C9F1FFFFD890D435D96ED53567
:101AB600DA6E0150D9260250DA22DE50D25DD351B9
:101AC600800A076EDE50800A0758D8B06DEF0DF019
:101AD60070EF0DF0FFFF82EF0DF0FFFFD890D435C9
:101AE600D96ED535DA6E0150D9260250DA22DECF0C
:101AF600D2F1DDCFD3F1D4C1C8F1D5C1C9F1FFFF11
:101B0600D44BD52BFFFFCC51D45DD551800A056E41
:101B1600CD51800A0558D8A093EF0DF096EF0DF041
:101B2600FFFF3AEF0DF0FFFFC8C1CEF1C9C1CFF1FB
:101B3600C2EF0DF0FFFFCEC105F0CFC106F0D89081
:101B46000536063601C007F002C008F00550072624
:101B560006500822020E0724D96E000E0820DA6EFF
:101B6600D890CE35E16ECF35E26E0150E1260250B7
:101B7600E222DECFE6FFDDCFE5FFCE4BCF2BFFFF28
:101B8600CC51CE5DCF51800A056ECD51800A0558E5
:101B9600D8A0D0EF0DF0D3EF0DF0FFFF9DEF0DF0C5
:101BA600FFFFD890CA35D96ECB35DA6E000ED9262E
:101BB600010EDA22D2C1DEFFD3C1DDFFCC07D8A0E9
:101BC600CD07CA4BCB2BFF0E056EFF0E066E03C06C
:101BD60007F004C008F00550072606500822CA512F
:101BE600075C0850800A096ECB51800A0958D8B0A4
:101BF600FFEF0DF002EF0EF0FFFF2BEF0DF0FFFFF2
:101C0600000ED16F000ED06F22EF0EF0FFFFD890BE
:101C1600D035D96ED135DA6E000ED926010EDA220C
:101C2600D890D035E16ED135E26E0150E1260250F2
:101C3600E222DECFE6FFDDCFE5FFD04BD12BFFFF63
:101C46000350D05DD151800A056E0450800A0558B4
:101C5600D8A030EF0EF033EF0EF0FFFF09EF0EF0D5
:101C6600FFFF1200FFFFFFFF7DEC19F07D507E1095
:101C7600D8A440EF0EF043EF0EF0FFFF8FEF0FF00A
:101C8600FFFFF4EC02F0010E066E010EF4EC04F018
:101C9600240E066E7F0E076E32EC05F0270E6B6E75
:101CA600130E6A6E820EFFFFE82EFDD76A2EFBD753
:101CB6006B2EF9D77CBE6BEF0EF07C5006E17B04F1
:101CC600D8B068EF0EF06BEF0EF0FFFF7BEF0EF073
:101CD600FFFF000195BF78EF0EF0955109E19405DD
:101CE600D8A078EF0EF07BEF0EF0FFFF74EF0FF049
:101CF600FFFF010E066E020EF4EC04F0C40E066E33
:101D06007E0E076E32EC05F0F4EC02F0000E6F6EFC
:101D1600000E6E6EAEEF0EF0FFFFD8906E34D96EE9
:101D26006F34DA6E000ED926050EDA226E507B2449
:101D36006A6E6F507C206B6ED8906A366B36000EDA
:101D46006A24E16E020E6B20E26EDECFE6FFDDCF87
:101D5600E5FF6E4A6F2AFFFF000194516E5C6F50DB
:101D6600800A6A6E9551800A6A58D8A0BDEF0EF0B7
:101D7600C0EF0EF0FFFF8FEF0EF0FFFF000E016EBB
:101D8600020E026E94517B24036E95517C20046EE4
:101D960004EC0CF0000E016E030E026E000194516D
:101DA6007B24036E95517C20046EDAEC06F001C0AC
:101DB6007BF002C07CF0000E6D6E000E6C6E0BEFB9
:101DC6000FF0FFFF970E586E000E596EFC0E5A6EFE
:101DD6007F0E5B6ED8906C34D96E6D34DA6E000E61
:101DE600D926020EDA22DECF5CF0DDCF5DF0E9EC1B
:101DF60003F0E3C006F0020EF4EC04F0970E066E54
:101E0600000E076E32EC05F00001E32B6C4A6D2ADA
:101E1600FFFF7B506C5C6D50800A6A6E7C50800AB6
:101E26006A58D8A019EF0FF01CEF0FF0FFFFE4EF90
:101E36000EF0FFFF010E0001E36F270E6B6E130E0F
:101E46006A6E820EFFFFE82EFDD76A2EFBD76B2E39
:101E5600F9D700C290F001C291F0000E716E000E2B
:101E6600706E4FEF0FF0FFFFD8907034D96E71345B
:101E7600DA6E020ED926030EDA22D8907034E16E9D
:101E86007134E26E000EE126030EE222DECFE6FF9B
:101E9600DDCFE5FF704A712AFFFF7B50705C715001
:101EA600800A6A6E7C50800A6A58D8A05DEF0FF0EF
:101EB60060EF0FF0FFFF36EF0FF0FFFF7B06D8A0B5
:101EC6007C06000E0001896F010E886F000E8B6F75
:101ED600000E8A6FFFFF000E696E010E686E94EFAA
:101EE6000FF0FFFF010E066E020EF4EC04F0C10EB9
:101EF600066E7E0E076E32EC05F0000E0001916F45
:101F0600000E906F000E8D6F000E8C6F000E7E6EB1
:101F1600000E7D6E6DEF0FF0FFFF000E696E000E76
:101F2600686EFFFF1200FFFFFFFF1EC036F01FC0E6
:101F360037F020C038F021C039F022C03AF023C073
:101F46003BF024C03CF025C03DF03DBEADEF0FF0A8
:101F5600B1EF0FF0FFFF010EB3EF0FF0FFFF000E22
:101F6600FFFF346E356A34503510D8B4BDEF0FF02C
:101F7600C0EF0FF0FFFFD1EF0FF0FFFF3D1E3C1E3D
:101F86003B1E3A1E391E381E371E366C000E37228F
:101F9600382239223A223B223C223D22FFFF000111
:101FA60085BFD8EF0FF0DBEF0FF0FFFFDDEF0FF08F
:101FB600FFFF8693FFFF85BFECEF0FF0855106E12B
:101FC6008405D8B0E9EF0FF0ECEF0FF0FFFFF3EF69
:101FD6000FF0FFFF000E316E010E306EF8EF0FF0BE
:101FE600FFFF84C030F085C031F0FFFF82C032F0C1
:101FF60083C033F034503510D8A404EF10F007EF47
:1020060010F0FFFF10EF10F0FFFF86A50DEF10F0A8
:1020160010EF10F0FFFF14EF10F0FFFF3206D8A00C
:102026003306FFFF000E3F6E1F0E3E6E000E0101CF
:10203600F96F9BEF10F0FFFF3E06D8A03F06DA0EC1
:102046003E24D96E010E3F20DA6E36C001F037C04D
:1020560002F038C003F039C004F03AC005F03BC0C6
:1020660006F03CC007F03DC008F00A0E096E000EEF
:102076000A6E000E0B6E000E0C6E000E0D6E000E3C
:102086000E6E000E0F6E000E106E87EC07F001C08C
:1020960026F002C027F003C028F004C029F005C0CE
:1020A6002AF006C02BF007C02CF008C02DF026C081
:1020B60013F028C014F09BEC03F01350300FDF6EC2
:1020C6003006D8A031063206D8A0330636C001F055
:1020D60037C002F038C003F039C004F03AC005F04A
:1020E6003BC006F03CC007F03DC008F00A0E096E82
:1020F600000E0A6E000E0B6E000E0C6E000E0D6EBC
:10210600000E0E6E000E0F6E000E106E4FEC08F0F5
:1021160001C036F002C037F003C038F004C039F011
:1021260005C03AF006C03BF007C03CF008C03DF0E1
:10213600FFFF3FBEA7EF10F03F5009E13E04D8A0D5
:10214600A7EF10F0AAEF10F0FFFFE3EF10F0FFFF8C
:1021560036503710381039103A103B103C103D10ED
:10216600D8A4B8EF10F0BBEF10F0FFFF1EEF10F091
:10217600FFFF31BECAEF10F0315006E13004D8B08F
:10218600C7EF10F0CAEF10F0FFFF1EEF10F0FFFFD1
:1021960033BED6EF10F0335009E13204D8A0D6EFA3
:1021A60010F0D9EF10F0FFFFE3EF10F0FFFF000192
:1021B60086B3E0EF10F0E3EF10F0FFFF1EEF10F034
:1021C600FFFF34503510D8A4EBEF10F0EEEF10F00F
:1021D600FFFFF8EF10F0FFFF000186A5F5EF10F006
:1021E600F8EF10F0FFFF1BEF11F0FFFF3E06D8A03F
:1021F6003F0634503510D8A403EF11F006EF11F066
:10220600FFFF0DEF11F0FFFF000E2F6E2B0E2E6E4F
:1022160012EF11F0FFFF000E2F6E2D0E2E6EFFFF38
:10222600DA0E3E24D96E010E3F20DA6E2EC0DFFF95
:10223600FFFF1CC011F01DC012F0DA0E3E24136E13
:10224600010E3F20146E32C015F033C016F0EAECD2
:1022560005F011C01CF012C01DF01200FFFFFFFFB9
:1022660080EC04F012EC04F0FEEC02F04E0E5DEC95
:1022760006F0010E066E010EF4EC04F0C30E066EB7
:102286007F0E076E32EC05F0010E066E020EF4ECC0
:1022960004F08A0E066E7F0E076E32EC05F0FFFF25
:1022A60000018A518B11D8B45BEF11F05EEF11F08B
:1022B600FFFF6DEF11F0FFFF8B808B82000E8B6F9F
:1022C600000E8A6F000EE26F000EE16FDAEC14F07A
:1022D60052EF11F0FFFF88518911D8B475EF11F054
:1022E60078EF11F0FFFF85EF11F0FFFF8B808B82F7
:1022F600000E896F000E886F000EE26F010EE16F0F
:10230600DAEC14F0FFFF81A08BEF11F08EEF11F0E5
:10231600FFFFCAEF11F0FFFFF4EC02F0010E066EAC
:10232600010EF4EC04F0E10E066E7F0E076E32EC41
:1023360005F0000E0101D96F010ED86F000E0001E5
:10234600916F010E906F000EE26F010EE16FDAECF5
:1023560014F0F4EC02F0010E066E010EF4EC04F03B
:10236600660E066E7F0E076E32EC05F08B808B8252
:10237600FFFF140E7A6E0A0E796E400EFFFFE82EEE
:10238600FDD7792EFBD77A2EF9D752EF11F0FFFF42
:1023960081A4D0EF11F0D3EF11F0FFFF02EF12F09E
:1023A600FFFFF4EC02F0010E066E010EF4EC04F0F1
:1023B600EA0E066E7F0E076E32EC05F0000E010186
:1023C600D96F020ED86F000E0001916F020E906F4A
:1023D600000EE26F010EE16FDAEC14F0F4EC02F09D
:1023E600010E066E010EF4EC04F0660E066E7F0E0C
:1023F600076E32EC05F08B808B82BBEF11F0FFFF8E
:1024060081AA08EF12F00BEF12F0FFFF35EF12F082
:10241600FFFFF4EC02F0010E066E010EF4EC04F080
:10242600F30E066E7F0E076E32EC05F0000E00010D
:10243600916F030E906F000EE26F010EE16FDAEC02
:1024460014F0F4EC02F0010E066E010EF4EC04F04A
:10245600660E066E7F0E076E32EC05F08B808B8261
:10246600BBEF11F0FFFF81A23BEF12F03EEF12F03F
:10247600FFFF68EF12F0FFFFF4EC02F0010E066EAC
:10248600010EF4EC04F0A20E066E7F0E076E32EC1F
:1024960005F0000E0001916F020E906F000EE26FC4
:1024A600000EE16FDAEC14F0F4EC02F0010E066EA9
:1024B600010EF4EC04F0080E066E7F0E076E32EC89
:1024C60005F08B808B82BBEF11F0FFFF81A86EEFCA
:1024D60012F071EF12F0FFFFA0EF12F0FFFFF4EC25
:1024E60002F0010E066E010EF4EC04F0AD0E066E5F
:1024F6007F0E076E32EC05F0000E0101D96F030E58
:10250600D86F000E0001916F030E906F000EE26F00
:10251600000EE16FDAEC14F0F4EC02F0010E066E38
:10252600010EF4EC04F0080E066E7F0E076E32EC18
:1025360005F08B808B82BBEF11F0FFFF81ACA6EF1D
:1025460012F0A9EF12F0FFFF52EF11F0FFFFF4ECCB
:1025560002F0010E066E010EF4EC04F0B80E066EE3
:102566007F0E076E32EC05F0000E0101D96F040EE6
:10257600D86F000E0001916F040E906F000EE26F8F
:10258600000EE16FDAEC14F0F4EC02F0010E066EC8
:10259600010EF4EC04F0080E066E7F0E076E32ECA8
:1025A60005F08B808B82BBEF11F001EF00F0FFFF8F
:1025B600060E146EB60E136EF90EFFFFE82EFDD74B
:1025C600132EFBD7142EF9D7FFFF80A0EDEF12F0E4
:1025D600F0EF12F0FFFF50EF13F0FFFFF4EC02F004
:1025E600010E066E010EF4EC04F0D00E066E7E0EA1
:1025F600076E32EC05F00101D651D711D8B406EFBB
:1026060013F009EF13F0FFFF3DEF13F0FFFFD9BF03
:1026160018EF13F0D95106E1D805D8B015EF13F02D
:1026260018EF13F0FFFF2BEF13F0FFFFFFFFD8901B
:102636007B34D96E7C34DA6E000ED926020EDA228D
:10264600010EDE6E000EDD6E7B4A7C2A50EF13F023
:10265600FFFFD8907D34D96E7E34DA6E000ED9260F
:10266600030EDA22010EDE6E000EDD6E7D4A7E2A34
:1026760050EF13F0FFFFD9BF4AEF13F0D9510AE12B
:10268600020ED85DD8A04AEF13F04DEF13F0FFFF0E
:1026960019EF13F0FFFF2BEF13F0FFFF80A256EFA9
:1026A60013F059EF13F0FFFFBAEF13F0FFFFF4EC4E
:1026B60002F0010E066E010EF4EC04F0DE0E066E5C
:1026C6007E0E076E32EC05F00101D651D711D8B453
:1026D6006FEF13F072EF13F0FFFFA7EF13F0FFFF9A
:1026E600D9BF82EF13F0D95107E1020ED85DD8B0F9
:1026F6007FEF13F082EF13F0FFFF95EF13F0FFFF6C
:10270600FFFFD8907B34D96E7C34DA6E000ED92662
:10271600020EDA22020EDE6E000EDD6E7B4A7C2A87
:10272600BAEF13F0FFFFD8907D34D96E7E34DA6E9F
:10273600000ED926030EDA22020EDE6E000EDD6EC4
:102746007D4A7E2ABAEF13F0FFFFD9BFB4EF13F02C
:10275600D9510AE1030ED85DD8A0B4EF13F0B7EF54
:1027660013F0FFFF83EF13F0FFFF95EF13F0FFFF6A
:1027760080A4C0EF13F0C3EF13F0FFFF24EF14F0B3
:10278600FFFFF4EC02F0010E066E010EF4EC04F00D
:10279600EC0E066E7E0E076E32EC05F00101D65188
:1027A600D711D8B4D9EF13F0DCEF13F0FFFF11EF18
:1027B60014F0FFFFD9BFECEF13F0D95107E1030E78
:1027C600D85DD8B0E9EF13F0ECEF13F0FFFFFFEFA1
:1027D60013F0FFFFFFFFD8907B34D96E7C34DA6E9E
:1027E600000ED926020EDA22030EDE6E000EDD6E14
:1027F6007B4A7C2A24EF14F0FFFFD8907D34D96EF3
:102806007E34DA6E000ED926030EDA22030EDE6E51
:10281600000EDD6E7D4A7E2A24EF14F0FFFFD9BF3D
:102826001EEF14F0D9510AE1040ED85DD8A01EEFB0
:1028360014F021EF14F0FFFFEDEF13F0FFFFFFEFB1
:1028460013F0FFFF80A62AEF14F02DEF14F0FFFF20
:102856008EEF14F0FFFFF4EC02F0010E066E010E8F
:10286600F4EC04F0FA0E066E7E0E076E32EC05F0FE
:102876000101D651D711D8B443EF14F046EF14F046
:10288600FFFF7BEF14F0FFFFD9BF56EF14F0D951CD
:1028960007E1040ED85DD8B053EF14F056EF14F0EC
:1028A600FFFF69EF14F0FFFFFFFFD8907B34D96E6E
:1028B6007C34DA6E000ED926020EDA22040EDE6EA3
:1028C600000EDD6E7B4A7C2A8EEF14F0FFFFD89057
:1028D6007D34D96E7E34DA6E000ED926030EDA22E6
:1028E600040EDE6E000EDD6E7D4A7E2A8EEF14F03B
:1028F600FFFFD9BF88EF14F0D9510AE1050ED85D64
:10290600D8A088EF14F08BEF14F0FFFF57EF14F008
:10291600FFFF69EF14F0FFFF80A894EF14F097EF24
:1029260014F0FFFFE7EF12F0FFFF0101D651D711B8
:10293600D8B4A0EF14F0A3EF14F0FFFFBEEF14F02D
:10294600FFFF000E016E020E026E7BC003F07CC01C
:1029560004F004EC0CF0000E016E020E026E7BC059
:1029660003F07CC004F0DAEC06F001C07BF002C094
:102976007CF0D7EF14F0FFFF000E016E030E026E1F
:102986007DC003F07EC004F01DEC0DF0000E016E5C
:10299600030E026E7DC003F07EC004F0DAEC06F092
:1029A60001C07DF002C07EF0FFFF1200FFFFFFFFB7
:1029B6000001E105E211D8A4E3EF14F0E6EF14F00C
:1029C600FFFF0CEF15F0FFFF000E8D6F000E8C6FF2
:1029D600000E0101D76F010ED66F000E0001936F36
:1029E600000E926F000E956F000E946F000E7E6EB5
:1029F600000E7D6EF4EC02F0010E066E010EF4EC94
:102A060004F0CD0E066E7F0E076E32EC05F05AEF1F
:102A160019F0FFFFE151E211D8A414EF15F017EFFA
:102A260015F0FFFF5AEF19F0FFFF000E0101D76FF7
:102A3600000ED66F000E00018D6F010E8C6F000E1A
:102A4600936F000E926F000E956F000E946F000E3E
:102A56007C6E000E7B6EF4EC02F0010E066E010E2B
:102A6600F4EC04F07E0E066E7F0E076E32EC05F077
:102A76005AEF19F0FFFF010E066E020EF4EC04F099
:102A8600580E066E7E0E076E32EC05F000018E05BE
:102A96008F11D8A451EF15F054EF15F0FFFFA6EFF4
:102AA60015F0FFFF000E0101D96F010ED86F8C8063
:102AB600DAEC12F08C90060E786EB60E776EF90E82
:102AC600FFFFE82EFDD7772EFBD7782EF9D77B5060
:102AD6007C10D8A471EF15F074EF15F0FFFF83EFAB
:102AE60015F0FFFF0101D605D711D8A47DEF15F02B
:102AF60080EF15F0FFFF83EF15F0FFFF7AEF19F077
:102B0600FFFF7D507E10D8A48BEF15F08EEF15F0E9
:102B1600FFFF9DEF15F0FFFF00018C058D11D8A476
:102B260097EF15F09AEF15F0FFFF9DEF15F0FFFFF9
:102B36007AEF19F0FFFFE1C0DFF0E2C0E0F029EC28
:102B460009F07AEF19F0FFFF8B9083A8ADEF15F02F
:102B5600B0EF15F0FFFFA6EF15F0FFFF000E010125
:102B6600D96F010ED86F8B808C80DAEC12F08C90C6
:102B7600060E786EB60E776EF90EFFFFE82EFDD7BD
:102B8600772EFBD7782EF9D77B507C10D8A4CEEFC2
:102B960015F0D1EF15F0FFFFE0EF15F0FFFF010193
:102BA600D605D711D8A4DAEF15F0DDEF15F0FFFF43
:102BB600E0EF15F0FFFF7AEF19F0FFFF7D507E1072
:102BC600D8A4E8EF15F0EBEF15F0FFFF9DEF15F039
:102BD600FFFF00018C058D11D8A4F4EF15F0F7EF77
:102BE60015F0FFFF9DEF15F0FFFF7AEF19F0FFFFDD
:102BF600010E066E020EF4EC04F0760E066E7E0EE4
:102C0600076E32EC05F0020E00018E198F11D8A462
:102C16000FEF16F012EF16F0FFFF5BEF16F0FFFF57
:102C2600000E0101D96F020ED86F8C82DAEC12F019
:102C36008C92060E786EB60E776EF90EFFFFE82EB2
:102C4600FDD7772EFBD7782EF9D77B507C10D8A4EA
:102C56002FEF16F032EF16F0FFFF41EF16F0FFFFF1
:102C66000101D605D711D8A43BEF16F03EEF16F0BA
:102C7600FFFF41EF16F0FFFF7AEF19F0FFFF7D50DF
:102C86007E10D8A449EF16F04CEF16F0FFFF9DEF2B
:102C960015F0FFFF00018C058D11D8A455EF16F035
:102CA60058EF16F0FFFF9DEF15F0FFFF7AEF19F0D2
:102CB600FFFF8FBF6BEF16F08F5107E1020E8E5D9F
:102CC600D8B068EF16F06BEF16F0FFFFC0EF16F006
:102CD600FFFFFFFF8B9283AA73EF16F076EF16F0D5
:102CE600FFFF6CEF16F0FFFF8B82000E0101D96F1C
:102CF600020ED86F8C82DAEC12F08C92060E786E89
:102D0600B60E776EF90EFFFFE82EFDD7772EFBD7AE
:102D1600782EF9D77B507C10D8A494EF16F097EF55
:102D260016F0FFFFA6EF16F0FFFF0101D605D7113B
:102D3600D8A4A0EF16F0A3EF16F0FFFFA6EF16F04B
:102D4600FFFF7AEF19F0FFFF7D507E10D8A4AEEF9B
:102D560016F0B1EF16F0FFFF9DEF15F0FFFF000133
:102D66008C058D11D8A4BAEF16F0BDEF16F0FFFF53
:102D76009DEF15F0FFFF7AEF19F0FFFF8B9083AA06
:102D8600C7EF16F0CAEF16F0FFFFC0EF16F0FFFF11
:102D96008B80000E0101D96F020ED86F8C82DAEC9F
:102DA60012F08C92060E786EB60E776EF90EFFFF55
:102DB600E82EFDD7772EFBD7782EF9D77B507C10DF
:102DC600D8A4E8EF16F0EBEF16F0FFFFFAEF16F0D7
:102DD600FFFF0101D605D711D8A4F4EF16F0F7EFDF
:102DE60016F0FFFFFAEF16F0FFFF7AEF19F0FFFF7C
:102DF6007D507E10D8A402EF17F005EF17F0FFFF05
:102E06009DEF15F0FFFF00018C058D11D8A40EEF84
:102E160017F011EF17F0FFFF9DEF15F0FFFF7AEFA8
:102E260019F0FFFF000E0101D96F030ED86F010ED6
:102E3600066E020EF4EC04F0940E066E7E0E076E1D
:102E460032EC05F0030E00018E198F11D8A42EEF77
:102E560017F031EF17F0FFFF75EF17F0FFFF8C84C7
:102E6600DAEC12F08C94060E786EB60E776EF90ECA
:102E7600FFFFE82EFDD7772EFBD7782EF9D77B50AC
:102E86007C10D8A449EF17F04CEF17F0FFFF5BEF6B
:102E960017F0FFFF0101D605D711D8A455EF17F09B
:102EA60058EF17F0FFFF5BEF17F0FFFF7AEF19F00F
:102EB600FFFF7D507E10D8A463EF17F066EF17F082
:102EC600FFFF9DEF15F0FFFF00018C058D11D8A4C3
:102ED6006FEF17F072EF17F0FFFF9DEF15F0FFFF92
:102EE6007AEF19F0FFFF8FBF85EF17F08F5107E1DB
:102EF600030E8E5DD8B082EF17F085EF17F0FFFF57
:102F0600DAEF17F0FFFFFFFF8B9283AC8DEF17F020
:102F160090EF17F0FFFF86EF17F0FFFF8B82000E92
:102F26000101D96F030ED86F8C84DAEC12F08C9401
:102F3600060E786EB60E776EF90EFFFFE82EFDD7F9
:102F4600772EFBD7782EF9D77B507C10D8A4AEEF1E
:102F560017F0B1EF17F0FFFFC0EF17F0FFFF010109
:102F6600D605D711D8A4BAEF17F0BDEF17F0FFFFBB
:102F7600C0EF17F0FFFF7AEF19F0FFFF7D507E10CC
:102F8600D8A4C8EF17F0CBEF17F0FFFF9DEF15F0B1
:102F9600FFFF00018C058D11D8A4D4EF17F0D7EFF1
:102FA60017F0FFFF9DEF15F0FFFF7AEF19F0FFFF17
:102FB6008B9083ACE1EF17F0E4EF17F0FFFFDAEF49
:102FC60017F0FFFF8B80000E0101D96F030ED86F3B
:102FD6008C84DAEC12F08C94060E786EB60E776E50
:102FE600F90EFFFFE82EFDD7772EFBD7782EF9D7FF
:102FF6007B507C10D8A402EF18F005EF18F0FFFF05
:1030060014EF18F0FFFF0101D605D711D8A40EEF73
:1030160018F011EF18F0FFFF14EF18F0FFFF7AEF2A
:1030260019F0FFFF7D507E10D8A41CEF18F01FEF9B
:1030360018F0FFFF9DEF15F0FFFF00018C058D11C5
:10304600D8A428EF18F02BEF18F0FFFF9DEF15F02E
:10305600FFFF7AEF19F0FFFF010E066E020EF4EC89
:1030660004F0B20E066E7E0E076E32EC05F001011C
:10307600D651D711D8B442EF18F045EF18F0FFFF3C
:103086004BEF18F0FFFF000E0001E26F000EE16F3C
:10309600FFFF040E00018E198F11D8A455EF18F00A
:1030A60058EF18F0FFFFA1EF18F0FFFF000E010127
:1030B600D96F040ED86F8C86DAEC12F08C96060E59
:1030C600786EB60E776EF90EFFFFE82EFDD7772ED7
:1030D600FBD7782EF9D77B507C10D8A475EF18F063
:1030E60078EF18F0FFFF87EF18F0FFFF0101D60514
:1030F600D711D8A481EF18F084EF18F0FFFF87EFFF
:1031060018F0FFFF7AEF19F0FFFF7D507E10D8A46C
:103116008FEF18F092EF18F0FFFF9DEF15F0FFFF0D
:1031260000018C058D11D8A49BEF18F09EEF18F0C6
:10313600FFFF9DEF15F0FFFF7AEF19F0FFFF8FBF3E
:10314600B1EF18F08F5107E1040E8E5DD8B0AEEFE7
:1031560018F0B1EF18F0FFFF06EF19F0FFFFFFFFC1
:103166008B9283AEB9EF18F0BCEF18F0FFFFB2EF09
:1031760018F0FFFF8B82000E0101D96F040ED86F85
:103186008C86DAEC12F08C96060E786EB60E776E9A
:10319600F90EFFFFE82EFDD7772EFBD7782EF9D74D
:1031A6007B507C10D8A4DAEF18F0DDEF18F0FFFFA3
:1031B600ECEF18F0FFFF0101D605D711D8A4E6EF12
:1031C60018F0E9EF18F0FFFFECEF18F0FFFF7AEFC9
:1031D60019F0FFFF7D507E10D8A4F4EF18F0F7EF3A
:1031E60018F0FFFF9DEF15F0FFFF00018C058D1114
:1031F600D8A400EF19F003EF19F0FFFF9DEF15F0CB
:10320600FFFF7AEF19F0FFFF8B9083AE0DEF19F0F9
:1032160010EF19F0FFFF06EF19F0FFFF8B80000E8D
:103226000101D96F040ED86F8C86DAEC12F08C96F9
:10323600060E786EB60E776EF90EFFFFE82EFDD7F6
:10324600772EFBD7782EF9D77B507C10D8A42EEF9B
:1032560019F031EF19F0FFFF40EF19F0FFFF010100
:10326600D605D711D8A43AEF19F03DEF19F0FFFFB4
:1032760040EF19F0FFFF7AEF19F0FFFF7D507E1047
:10328600D8A448EF19F04BEF19F0FFFF9DEF15F0AA
:10329600FFFF00018C058D11D8A454EF19F057EFEC
:1032A60019F0FFFF9DEF15F0FFFF7AEF19F0FFFF12
:1032B60090C077F091C078F07850000AD8B466EFE5
:1032C60019F07AEF19F0FFFF7750010AD8B43DEFF5
:1032D60015F0030AD8B4FAEF15F0010AD8B414EFC2
:1032E60017F0070AD8B42EEF18F07AEF19F0FFFF9F
:1032F6001200FFFFFFFF83A883EF19F086EF19F096
:10330600FFFF0DEF1BF0FFFF000E0101D96F010E4D
:10331600D86F020100050111D8A494EF19F097EFB8
:1033260019F0FFFF5BEF1AF0FFFF000E00018F6F31
:10333600010E8E6F8B82000ED06F000ECF6FBDEF29
:1033460019F0FFFFD890CF35D96ED035DA6E020E60
:10335600D926020EDA22D890CF35E16ED035E26E4C
:10336600000EE126020EE222DECFE6FFDDCFE5FF0C
:10337600CF4BD02BFFFF7B50CF5DD051800A666EBE
:103386007C50800A6658D8A0CBEF19F0CEEF19F022
:10339600FFFFA4EF19F0FFFF7B06D8A07C06F4EC34
:1033A60002F0010E066E010EF4EC04F0320E066E0B
:1033B6007F0E076E32EC05F0000E0001C06F000EA6
:1033C600BF6F0DEF1AF0FFFF970E586E000E596E85
:1033D600FC0E5A6E7F0E5B6ED890BF35D96EC03527
:1033E600DA6E000ED926020EDA22DECF5CF0DDCFD1
:1033F6005DF0E9EC03F0E3C006F0020EF4EC04F035
:10340600970E066E000E076E32EC05F00001E32BF8
:10341600BF4BC02BFFFF7B50BF5DC051800A666E5D
:103426007C50800A6658D8A01BEF1AF01EEF1AF0DF
:10343600FFFFE6EF19F0FFFF010EE36F3A0E676E2E
:103446001C0E666EC40EFFFFE82EFDD7662EFBD758
:10345600672EF9D78C80DAEC12F08C90060E676E28
:10346600B60E666EF90EFFFFE82EFDD7662EFBD769
:10347600672EF9D77B507C10D8B444EF1AF047EF8B
:103486001AF0FFFF4BEF1AF0FFFF8B925BEF1AF07B
:10349600FFFFF4EC02F0010E066E010EF4EC04F0F0
:1034A600720E066E7F0E076E32EC05F0FDEF1FF012
:1034B600FFFF030100050111D8A464EF1AF067EFBE
:1034C6001AF0FFFF0DEF1BF0FFFF000E00018F6FDC
:1034D600010E8E6F8B80000ED26F000ED16F8DEFB6
:1034E6001AF0FFFFD890D135D96ED235DA6E020EBA
:1034F600D926030EDA22D890D135E16ED235E26EA6
:10350600000EE126030EE222DECFE6FFDDCFE5FF69
:10351600D14BD22BFFFF7D50D15DD251800A666E12
:103526007E50800A6658D8A09BEF1AF09EEF1AF0DC
:10353600FFFF74EF1AF0FFFF7D06D8A07E06F4ECBD
:1035460002F0010E066E010EF4EC04F0490E066E52
:103556007E0E076E32EC05F0000E0001C26F000E03
:10356600C16FDDEF1AF0FFFF970E586E000E596E11
:10357600FC0E5A6E7F0E5B6ED890C135D96EC23581
:10358600DA6E000ED926030EDA22DECF5CF0DDCF2E
:103596005DF0E9EC03F0E3C006F0020EF4EC04F093
:1035A600970E066E000E076E32EC05F00001E32B57
:1035B600C14BC22BFFFF7D50C15DC251800A666EB2
:1035C6007E50800A6658D8A0EBEF1AF0EEEF1AF09C
:1035D600FFFFB6EF1AF0FFFF010EE36F3A0E676EBC
:1035E6001C0E666EC40EFFFFE82EFDD7662EFBD7B7
:1035F600672EF9D78C80DAEC12F08C90060E676E87
:10360600B60E666EF90EFFFFE82EFDD7662EFBD7C7
:10361600672EF9D7FFFF83AA13EF1BF016EF1BF0F7
:10362600FFFFBDEF1CF0FFFF000E0101D96F020E78
:10363600D86F020E020100190111D8A425EF1BF064
:1036460028EF1BF0FFFFECEF1BF0FFFF000E000161
:103656008F6F020E8E6F8B82000ED46F000ED36FAB
:103666004EEF1BF0FFFFD890D335D96ED435DA6E06
:10367600020ED926020EDA22D890D335E16ED43561
:10368600E26E000EE126020EE222DECFE6FFDDCF7D
:10369600E5FFD34BD42BFFFF7B50D35DD451800A7B
:1036A600666E7C50800A6658D8A05CEF1BF05FEF10
:1036B6001BF0FFFF35EF1BF0FFFF7B06D8A07C0653
:1036C600F4EC02F0010E066E010EF4EC04F03F0E6F
:1036D600066E7F0E076E32EC05F0000E0001C46F19
:1036E600000EC36F9EEF1BF0FFFF970E586E000E85
:1036F600596EFC0E5A6E7F0E5B6ED890C335D96E2E
:10370600C435DA6E000ED926020EDA22DECF5CF060
:10371600DDCF5DF0E9EC03F0E3C006F0020EF4EC59
:1037260004F0970E066E000E076E32EC05F00001EF
:10373600E32BC34BC42BFFFF7B50C35DC451800AF0
:10374600666E7C50800A6658D8A0ACEF1BF0AFEFCF
:103756001BF0FFFF77EF1BF0FFFF010EE36F3A0E42
:10376600676E1C0E666EC40EFFFFE82EFDD7662E32
:10377600FBD7672EF9D78C82DAEC12F08C92060E04
:10378600676EB60E666EF90EFFFFE82EFDD7662E43
:10379600FBD7672EF9D77B507C10D8B4D5EF1BF03A
:1037A600D8EF1BF0FFFFDCEF1BF0FFFF8B92ECEF77
:1037B6001BF0FFFFF4EC02F0010E066E010EF4ECB6
:1037C60004F0720E066E7F0E076E32EC05F0FDEF0A
:1037D6001FF0FFFF020E030100190111D8A4F6EF36
:1037E6001BF0F9EF1BF0FFFFBDEF1CF0FFFF000E13
:1037F60000018F6F020E8E6F8B80000ED66F000E4B
:10380600D56F1FEF1CF0FFFFD890D535D96ED63592
:10381600DA6E020ED926030EDA22D890D535E16E7D
:10382600D635E26E000EE126030EE222DECFE6FF7B
:10383600DDCFE5FFD54BD62BFFFF7D50D55DD651AD
:10384600800A666E7E50800A6658D8A02DEF1CF05E
:1038560030EF1CF0FFFF06EF1CF0FFFF7D06D8A03F
:103866007E06F4EC02F0010E066E010EF4EC04F096
:10387600670E066E7E0E076E32EC05F0000E000136
:10388600C66F000EC56F6FEF1CF0FFFF970E586EE8
:10389600000E596EFC0E5A6E7F0E5B6ED890C535C3
:1038A600D96EC635DA6E000ED926030EDA22DECFC1
:1038B6005CF0DDCF5DF0E9EC03F0E3C006F0020E4C
:1038C600F4EC04F0970E066E000E076E32EC05F06F
:1038D6000001E32BC54BC62BFFFF7D50C55DC651CE
:1038E600800A666E7E50800A6658D8A07DEF1CF06E
:1038F60080EF1CF0FFFF48EF1CF0FFFF010EE36FA7
:103906003A0E676E1C0E666EC40EFFFFE82EFDD7DC
:10391600662EFBD7672EF9D78C82DAEC12F08C92E2
:10392600060E676EB60E666EF90EFFFFE82EFDD721
:10393600662EFBD7672EF9D77D507E10D8B4A6EF3A
:103946001CF0A9EF1CF0FFFFADEF1CF0FFFF8B9002
:10395600BDEF1CF0FFFFF4EC02F0010E066E010E47
:10396600F4EC04F0160E066E7F0E076E32EC05F0D0
:10397600FDEF1FF0FFFF83ACC3EF1CF0C6EF1CF09A
:10398600FFFF6DEF1EF0FFFF000E0101D96F030E62
:10399600D86F030E020100190111D8A4D5EF1CF04F
:1039A600D8EF1CF0FFFF9CEF1DF0FFFF000E00019B
:1039B6008F6F030E8E6F8B82000ED86F000ED76F3F
:1039C600FEEF1CF0FFFFD890D735D96ED835DA6EEA
:1039D600020ED926020EDA22D890D735E16ED835F6
:1039E600E26E000EE126020EE222DECFE6FFDDCF1A
:1039F600E5FFD74BD82BFFFF7B50D75DD851800A08
:103A0600666E7C50800A6658D8A00CEF1DF00FEF4A
:103A16001DF0FFFFE5EF1CF0FFFF7B06D8A07C063C
:103A2600F4EC02F0010E066E010EF4EC04F04C0EFE
:103A3600066E7F0E076E32EC05F0000E0001C86FB1
:103A4600000EC76F4EEF1DF0FFFF970E586E000E6B
:103A5600596EFC0E5A6E7F0E5B6ED890C735D96EC6
:103A6600C835DA6E000ED926020EDA22DECF5CF0F9
:103A7600DDCF5DF0E9EC03F0E3C006F0020EF4ECF6
:103A860004F0970E066E000E076E32EC05F000018C
:103A9600E32BC74BC82BFFFF7B50C75DC851800A7D
:103AA600666E7C50800A6658D8A05CEF1DF05FEF0A
:103AB6001DF0FFFF27EF1DF0FFFF010EE36F3A0E2B
:103AC600676E1C0E666EC40EFFFFE82EFDD7662ECF
:103AD600FBD7672EF9D78C84DAEC12F08C94060E9D
:103AE600676EB60E666EF90EFFFFE82EFDD7662EE0
:103AF600FBD7672EF9D77B507C10D8B485EF1DF025
:103B060088EF1DF0FFFF8CEF1DF0FFFF8B929CEFFF
:103B16001DF0FFFFF4EC02F0010E066E010EF4EC50
:103B260004F0720E066E7F0E076E32EC05F0FDEFA6
:103B36001FF0FFFF030E030100190111D8A4A6EF21
:103B46001DF0A9EF1DF0FFFF6DEF1EF0FFFF000E49
:103B560000018F6F030E8E6F8B80000EDA6F000EE2
:103B6600D96FCFEF1DF0FFFFD890D935D96EDA3572
:103B7600DA6E020ED926030EDA22D890D935E16E16
:103B8600DA35E26E000EE126030EE222DECFE6FF14
:103B9600DDCFE5FFD94BDA2BFFFF7D50D95DDA513A
:103BA600800A666E7E50800A6658D8A0DDEF1DF04A
:103BB600E0EF1DF0FFFFB6EF1DF0FFFF7D06D8A07A
:103BC6007E06F4EC02F0010E066E010EF4EC04F033
:103BD600850E066E7E0E076E32EC05F0000E0001B5
:103BE600CA6F000EC96F1FEF1EF0FFFF970E586ECB
:103BF600000E596EFC0E5A6E7F0E5B6ED890C9355C
:103C0600D96ECA35DA6E000ED926030EDA22DECF59
:103C16005CF0DDCF5DF0E9EC03F0E3C006F0020EE8
:103C2600F4EC04F0970E066E000E076E32EC05F00B
:103C36000001E32BC94BCA2BFFFF7D50C95DCA515A
:103C4600800A666E7E50800A6658D8A02DEF1EF058
:103C560030EF1EF0FFFFF8EF1DF0FFFF010EE36FE0
:103C66003A0E676E1C0E666EC40EFFFFE82EFDD779
:103C7600662EFBD7672EF9D78C84DAEC12F08C947B
:103C8600060E676EB60E666EF90EFFFFE82EFDD7BE
:103C9600662EFBD7672EF9D77D507E10D8B456EF27
:103CA6001EF059EF1EF0FFFF5DEF1EF0FFFF8B9039
:103CB6006DEF1EF0FFFFF4EC02F0010E066E010E32
:103CC600F4EC04F0720E066E7F0E076E32EC05F011
:103CD600FDEF1FF0FFFF83AE73EF1EF076EF1EF0D1
:103CE600FFFFFDEF1FF0FFFF000E0101D96F040E6D
:103CF600D86F040E020100190111D8A485EF1EF039
:103D060088EF1EF0FFFF2EEF1FF0FFFF000E0001F1
:103D16008F6F040E8E6F8B82000EDC6F000EDB6FD2
:103D2600AEEF1EF0FFFFD890DB35D96EDC35DA6ECC
:103D3600020ED926020EDA22D890DB35E16EDC358A
:103D4600E26E000EE126020EE222DECFE6FFDDCFB6
:103D5600E5FFDB4BDC2BFFFF7B50DB5DDC51800A94
:103D6600666E7C50800A6658D8A0BCEF1EF0BFEF86
:103D76001EF0FFFF95EF1EF0FFFF7B06D8A07C0626
:103D8600F4EC02F0010E066E010EF4EC04F0590E8E
:103D9600066E7F0E076E32EC05F0000E0001CC6F4A
:103DA600000ECB6FFEEF1EF0FFFF970E586E000E53
:103DB600596EFC0E5A6E7F0E5B6ED890CB35D96E5F
:103DC600CC35DA6E000ED926020EDA22DECF5CF092
:103DD600DDCF5DF0E9EC03F0E3C006F0020EF4EC93
:103DE60004F0970E066E000E076E32EC05F0000129
:103DF600E32BCB4BCC2BFFFF7B50CB5DCC51800A0A
:103E0600666E7C50800A6658D8A00CEF1FF00FEF44
:103E16001FF0FFFFD7EF1EF0FFFF010EE36F3A0E14
:103E2600676E1C0E666EC40EFFFFE82EFDD7662E6B
:103E3600FBD7672EF9D78C86DAEC12F08C96060E35
:103E4600676EB60E666EF90EFFFFE82EFDD7662E7C
:103E5600FBD7672EF9D7FFFF040E030100190111E6
:103E6600D8A438EF1FF03BEF1FF0FFFFFDEF1FF068
:103E7600FFFF000E00018F6F040E8E6F8B80000E09
:103E8600DE6F000EDD6F61EF1FF0FFFFD890DD35AE
:103E9600D96EDE35DA6E020ED926030EDA22D890F6
:103EA600DD35E16EDE35E26E000EE126030EE2221E
:103EB600DECFE6FFDDCFE5FFDD4BDE2BFFFF7D50DE
:103EC600DD5DDE51800A666E7E50800A6658D8A097
:103ED6006FEF1FF072EF1FF0FFFF48EF1FF0FFFFBD
:103EE6007D06D8A07E06F4EC02F0010E066E010EE9
:103EF600F4EC04F0A30E066E7E0E076E32EC05F0AF
:103F0600000E0001CE6F000ECD6FB1EF1FF0FFFF68
:103F1600970E586E000E596EFC0E5A6E7F0E5B6E33
:103F2600D890CD35D96ECE35DA6E000ED926030E71
:103F3600DA22DECF5CF0DDCF5DF0E9EC03F0E3C022
:103F460006F0020EF4EC04F0970E066E000E076EF5
:103F560032EC05F00001E32BCD4BCE2BFFFF7D505D
:103F6600CD5DCE51800A666E7E50800A6658D8A016
:103F7600BFEF1FF0C2EF1FF0FFFF8AEF1FF0FFFF3A
:103F8600010EE36F3A0E676E1C0E666EC40EFFFFDF
:103F9600E82EFDD7662EFBD7672EF9D78C86DAEC8E
:103FA60012F08C96060E676EB60E666EF90EFFFF61
:103FB600E82EFDD7662EFBD7672EF9D77D507E10EB
:103FC600D8B4E8EF1FF0EBEF1FF0FFFFEFEF1FF0A5
:103FD600FFFF8B90FDEF1FF0FFFFF4EC02F0010EE8
:103FE600066E010EF4EC04F0720E066E7F0E076E7E
:0A3FF60032EC05F0FFFF1200FFFFA0
:107E480000446F776E3A2053746F7020464C3100AF
:107E58004D6F76652D746F20666C6F6F72310044BC
:107E68006F776E3A2053746F7020464C32004D6F16
:107E780076652D746F20666C6F6F723200446F7771
:107E88006E3A2053746F7020464C33004D6F766500
:107E98002D746F20666C6F6F723300446F776E3A83
:107EA8002053746F7020464C34004D6F76652D74E6
:107EB8006F20666C6F6F7234004E6F2063616C6C5C
:107EC80073496E446F776E0042746E506E31205065
:107ED80072657373210042746E506E322050726561
:107EE8007373210042746E506E3320507265737341
:107EF800210042746E506E342050726573732100F5
:107F08004D6F646520646F776E20454E44004D6F59
:107F1800646520446F776E204F464600456E6420A6
:107F2800446F776E204D6F64650055703A20537426
:107F38006F7020464C310055703A2053746F702092
:107F4800464C320055703A2053746F7020464C33BB
:107F58000055703A2053746F7020464C34004D6FB2
:107F6800646520757020454E44004D6F646520554A
:107F780070204F4646005B4D6F646520446F776EF6
:107F88005D004D6F646F2045737065726100456ECA
:107F980064205570204D6F64650062746E20646FB4
:107FA800776E20320062746E20646F776E20330023
:107FB80062746E20646F776E203400496E63696165
:107FC8006E646F21005B4D6F64652055705D0063C2
:107FD800616C6C73496E55700062746E2075702008
:107FE800310062746E20757020320062746E2075E4
:087FF800702033002564000035
:020000040020DA
:08000000FFFFFFFFFFFFFFFF00
:020000040030CA
:0E000000FF220D0EFF0080FF0EC00FE00F402C
:00000001FF
