:0600000000F088EF01F0A2
:10000800FFFF6182E1CF15F0E2CF16F0D9CF17F0EC
:10001800DACF18F04DEF01F0FFFF4F505010D8B471
:1000280018EF00F01BEF00F0FFFF7CEF01F0FFFF7F
:1000380052BE2AEF00F0525006E15104D8B027EF23
:1000480000F02AEF00F0FFFF7CEF01F0FFFFD890EF
:100058005B34D96E5C34DA6E000ED926030EDA22D0
:10006800010EDE6E000EDD6E5B4A5C2A000E016E2C
:10007800030E026E5BC003F05CC004F02DEC04F0CC
:100088005FC001F060C002F05BC003F05CC004F028
:1000980023EC07F001C019F002C01AF019C05BF098
:1000A8001AC05CF07CEF01F0FFFF4F505010D8B43D
:1000B80060EF00F063EF00F0FFFF7CEF01F0FFFF5F
:1000C80052BE73EF00F0525007E1020E515CD8B0F7
:1000D80070EF00F073EF00F0FFFF7CEF01F0FFFF1F
:1000E800D8905B34D96E5C34DA6E000ED926030ED4
:1000F800DA22020EDE6E000EDD6E5B4A5C2A000E0E
:10010800016E030E026E5BC003F05CC004F02DECC0
:1001180004F0000E016E030E026E5BC003F05CC0BB
:1001280004F023EC07F001C01BF002C01CF01BC058
:100138005BF01CC05CF07CEF01F0FFFF4F505010EB
:10014800D8B4A9EF00F0ACEF00F0FFFF7CEF01F0AE
:10015800FFFFD8905734D96E5834DA6E000ED9267E
:10016800050EDA22020EDE6E000EDD6E574A582AA0
:10017800000E3C6E010E3B6E7CEF01F0FFFF4F500E
:100188005010D8B4CAEF00F0CDEF00F0FFFF7CEFBD
:1001980001F0FFFF52BEDDEF00F0525007E1030E01
:1001A800515CD8B0DAEF00F0DDEF00F0FFFF7CEF34
:1001B80001F0FFFFD8905B34D96E5C34DA6E000E24
:1001C800D926030EDA22030EDE6E000EDD6E5B4AC0
:1001D8005C2A000E016E030E026E5BC003F05CC069
:1001E80004F02DEC04F0000E016E030E026E5BC0ED
:1001F80003F05CC004F023EC07F001C01DF002C05E
:100208001EF01DC05BF01EC05CF07CEF01F0FFFF2C
:100218004F505010D8B413EF01F016EF01F0FFFF64
:100228007CEF01F0FFFFD8905734D96E5834DA6E5E
:10023800000ED926050EDA22030EDE6E000EDD6EE4
:10024800574A582A000E386E010E376E7CEF01F0BF
:10025800FFFF4F505010D8B434EF01F037EF01F0E2
:10026800FFFF7CEF01F0FFFFD8905734D96E583468
:10027800DA6E000ED926050EDA22040EDE6E000EA6
:10028800DD6E574A582A000E366E010E356E7CEF29
:1002980001F0FFFF8150136E146A1450000AD8B49D
:1002A80058EF01F07CEF01F0FFFF1350010AD8B4BA
:1002B80010EF00F0030AD8B458EF00F0060AD8B4DB
:1002C800A1EF00F00C0AD8B47CEF01F0180AD8B4FA
:1002D800C2EF00F0300AD8B40BEF01F0600AD8B4CE
:1002E8002CEF01F0C00AD8B47CEF01F07CEF01F0EC
:1002F800FFFF18C0DAFF17C0D9FF16C0E2FF15C00C
:10030800E1FF61921100FFFFBFEF09F0FFFFF0EF7F
:1003180002F0FFFF83A893EF01F096EF01F0FFFFD3
:1003280011EF03F0FFFF8B82000E836F000E826FC8
:10033800B7EF01F0FFFFD8908235D96E8335DA6EBA
:10034800020ED926030EDA22D8908235E16E833563
:10035800E26E000EE126030EE222DECFE6FFDDCFDD
:10036800E5FF824B832BFFFF5B50825D8351800A40
:10037800806F5C50800A8059D8A0C5EF01F0C8EFA3
:1003880001F0FFFF9EEF01F0FFFF5B06D8A05C06BF
:100398008C80000E526E010E516E46EC05F08C906A
:1003A800060E0001816FB60E806FF80EFFFFE82E73
:1003B800FDD7802FFBD7812FF9D700D000F08B9283
:1003C80011EF03F0FFFF83AAECEF01F0EFEF01F06C
:1003D800FFFF11EF03F0FFFF8B828C82000E526E3D
:1003E800020E516E000E856F000E846F15EF02F03D
:1003F800FFFFD8908435D96E8535DA6E020ED9267E
:10040800030EDA22D8908435E16E8535E26E000E4F
:10041800E126030EE222DECFE6FFDDCFE5FF844BC7
:10042800852BFFFF5B50845D8551800A806F5C508F
:10043800800A8059D8A023EF02F026EF02F0FFFFD0
:10044800FCEF01F0FFFF5B06D8A05C0646EC05F068
:100458008C92060E0001816FB60E806FF80EFFFFBA
:10046800E82EFDD7802FFBD7812FF9D700D000F0D9
:100478008B9211EF03F0FFFF83AC45EF02F048EFDA
:1004880002F0FFFF11EF03F0FFFF8B828C84000E58
:10049800526E030E516E000E876F000E866F6EEF60
:1004A80002F0FFFFD8908635D96E8735DA6E020ED6
:1004B800D926030EDA22D8908635E16E8735E26EAA
:1004C800000EE126030EE222DECFE6FFDDCFE5FFD8
:1004D800864B872BFFFF5B50865D8751800A806FB4
:1004E8005C50800A8059D8A07CEF02F07FEF02F0C0
:1004F800FFFF55EF02F0FFFF5B06D8A05C0646EC55
:1005080005F08C94060E0001816FB60E806FF80E10
:10051800FFFFE82EFDD7802FFBD7812FF9D700D01A
:1005280000F08B9211EF03F0FFFF83AE9EEF02F015
:10053800A1EF02F0FFFF11EF03F0FFFF8B828C8623
:10054800000E526E040E516E000E896F000E886FF9
:10055800C7EF02F0FFFFD8908835D96E8935DA6E7B
:10056800020ED926030EDA22D8908835E16E893535
:10057800E26E000EE126030EE222DECFE6FFDDCFBB
:10058800E5FF884B892BFFFF5B50885D8951800A06
:10059800806F5C50800A8059D8A0D5EF02F0D8EF60
:1005A80002F0FFFFAEEF02F0FFFF5B06D8A05C068B
:1005B80046EC05F08C96060E0001816FB60E806F32
:1005C800F80EFFFFE82EFDD7802FFBD7812FF9D734
:1005D80000D000F011EF03F0FFFF00C380F001C36B
:1005E80081F000018151000AD8B4FDEF02F011EF4B
:1005F80003F0FFFF8051010AD8B48DEF01F0030A20
:10060800D8B4E6EF01F0010AD8B43FEF02F0070AC8
:10061800D8B498EF02F011EF03F0FFFF1200FFFFCC
:10062800FFFF000E0201CB6F000ECA6F000EC96FEC
:10063800000EC86F21C0CCF222C0CDF2FFFF1FC050
:10064800D9FF20C0DAFFDECFD2F2DDCFD3F2000E21
:10065800D56F000ED46F7CEF03F0FFFFD890D43530
:10066800D96ED535DA6E1F50D9262050DA22D251EC
:10067800DE1807E1D351DE18D8A445EF03F048EFA0
:1006880003F0FFFF4DEF03F0FFFFD4C2C8F2D5C25D
:10069800C9F2FFFFD890D435D96ED535DA6E1F5020
:1006A800D9262050DA22D251DE5CDE50800A256E2F
:1006B800D351800A2558D8B064EF03F067EF03F0F0
:1006C800FFFF79EF03F0FFFFD890D435D96ED53509
:1006D800DA6E1F50D9262050DA22DECFD2F2DDCFD3
:1006E800D3F2D4C2C8F2D5C2C9F2FFFFD44BD52B7E
:1006F800FFFFCC51D45DD551800A236ECD51800ABD
:100708002358D8A08AEF03F08DEF03F0FFFF31EFF5
:1007180003F0FFFFC8C2CEF2C9C2CFF2B9EF03F0AF
:10072800FFFFCEC223F0CFC224F0D8902336243660
:100738001FC025F020C026F023502526245026224D
:10074800020E2524D96E000E2620DA6ED890CE35FA
:10075800E16ECF35E26E1F50E1262050E222DECF57
:10076800E6FFDDCFE5FFCE4BCF2BFFFFCC51CE5DB3
:10077800CF51800A236ECD51800A2358D8A0C7EFE5
:1007880003F0CAEF03F0FFFF94EF03F0FFFFD890E8
:10079800CA35D96ECB35DA6E000ED926020EDA22AA
:1007A800D2C2DEFFD3C2DDFFCC07D8A0CD07CA4B2B
:1007B800CB2BFF0E236EFF0E246E21C025F022C026
:1007C80026F02350252624502622CA51255C26507F
:1007D800800A276ECB51800A2758D8B0F6EF03F06D
:1007E800F9EF03F0FFFF22EF03F0FFFF000ED16FD8
:1007F800000ED06F19EF04F0FFFFD890D035D96EF6
:10080800D135DA6E000ED926020EDA22D890D0350C
:10081800E16ED135E26E1F50E1262050E222DECF94
:10082800E6FFDDCFE5FFD04BD12BFFFF2150D05D98
:10083800D151800A236E2250800A2358D8A027EF6E
:1008480004F02AEF04F0FFFF00EF04F0FFFF1200AE
:10085800FFFFFFFF000E0101CB6F000ECA6F000EF5
:10086800C96F000EC86F03C0CCF104C0CDF1FFFF03
:1008780001C0D9FF02C0DAFFDECFD2F1DDCFD3F15C
:10088800000ED56F000ED46F95EF04F0FFFFD890DF
:10089800D435D96ED535DA6E0150D9260250DA2210
:1008A800D251DE1807E1D351DE18D8A45EEF04F068
:1008B80061EF04F0FFFF66EF04F0FFFFD4C1C8F159
:1008C800D5C1C9F1FFFFD890D435D96ED535DA6EC8
:1008D8000150D9260250DA22D251DE5CDE50800A5D
:1008E800076ED351800A0758D8B07DEF04F080EF27
:1008F80004F0FFFF92EF04F0FFFFD890D435D96ED3
:10090800D535DA6E0150D9260250DA22DECFD2F17F
:10091800DDCFD3F1D4C1C8F1D5C1C9F1FFFFD44BA4
:10092800D52BFFFFCC51D45DD551800A056ECD5132
:10093800800A0558D8A0A3EF04F0A6EF04F0FFFF43
:100948004AEF04F0FFFFC8C1CEF1C9C1CFF1D2EF21
:1009580004F0FFFFCEC105F0CFC106F0D8900536F0
:10096800063601C007F002C008F0055007260650F9
:100978000822020E0724D96E000E0820DA6ED890DD
:10098800CE35E16ECF35E26E0150E1260250E2220B
:10099800DECFE6FFDDCFE5FFCE4BCF2BFFFFCC51FF
:1009A800CE5DCF51800A056ECD51800A0558D8A07A
:1009B800E0EF04F0E3EF04F0FFFFADEF04F0FFFF1A
:1009C800D890CA35D96ECB35DA6E000ED926010E0D
:1009D800DA22D2C1DEFFD3C1DDFFCC07D8A0CD0714
:1009E800CA4BCB2BFF0E056EFF0E066E03C007F039
:1009F80004C008F00550072606500822CA51075CB3
:100A08000850800A096ECB51800A0958D8B00FEFF8
:100A180005F012EF05F0FFFF3BEF04F0FFFF000EBB
:100A2800D16F000ED06F32EF05F0FFFFD890D035B0
:100A3800D96ED135DA6E000ED926010EDA22D89099
:100A4800D035E16ED135E26E0150E1260250E22246
:100A5800DECFE6FFDDCFE5FFD04BD12BFFFF035004
:100A6800D05DD151800A056E0450800A0558D8A07F
:100A780040EF05F043EF05F0FFFF19EF05F0FFFF2A
:100A88001200FFFFFFFFFFFF80A04DEF05F050EFC2
:100A980005F0FFFF81EF05F0FFFF52BE5FEF05F0A5
:100AA800525006E15104D8B05CEF05F05FEF05F055
:100AB800FFFF71EF05F0FFFFD8905B34D96E5C340F
:100AC800DA6E000ED926030EDA22010EDE6E000E53
:100AD800DD6E5B4A5C2A81EF05F0FFFFD8905D343C
:100AE800D96E5E34DA6E000ED926040EDA22010EB3
:100AF800DE6E000EDD6E5D4A5E2AFFFF80A287EF84
:100B080005F08AEF05F0FFFFBCEF05F0FFFF52BECE
:100B18009AEF05F0525007E1020E515CD8B097EFFA
:100B280005F09AEF05F0FFFFACEF05F0FFFFD89056
:100B38005B34D96E5C34DA6E000ED926030EDA22E5
:100B4800020EDE6E000EDD6E5B4A5C2ABCEF05F01D
:100B5800FFFFD8905D34D96E5E34DA6E000ED92668
:100B6800040EDA22020EDE6E000EDD6E5D4A5E2A8B
:100B7800FFFF80A4C2EF05F0C5EF05F0FFFFF7EF18
:100B880005F0FFFF52BED5EF05F0525007E1030E06
:100B9800515CD8B0D2EF05F0D5EF05F0FFFFE7EFD5
:100BA80005F0FFFFD8905B34D96E5C34DA6E000E26
:100BB800D926030EDA22030EDE6E000EDD6E5B4AC6
:100BC8005C2AF7EF05F0FFFFD8905D34D96E5E34EC
:100BD800DA6E000ED926040EDA22030EDE6E000E3F
:100BE800DD6E5D4A5E2AFFFF80A6FDEF05F000EF8F
:100BF80006F0FFFF32EF06F0FFFF52BE10EF06F0DF
:100C0800525007E1040E515CD8B00DEF06F010EF1A
:100C180006F0FFFF22EF06F0FFFFD8905B34D96E95
:100C28005C34DA6E000ED926030EDA22040EDE6E6C
:100C3800000EDD6E5B4A5C2A32EF06F0FFFFD890AB
:100C48005D34D96E5E34DA6E000ED926040EDA22CF
:100C5800040EDE6E000EDD6E5D4A5E2AFFFF80A880
:100C680038EF06F03BEF06F0FFFF47EF05F0FFFF18
:100C7800000E1F6E030E206E5BC021F05CC022F0D8
:100C880014EC03F0000E1F6E030E206E5BC021F003
:100C98005CC022F07EEC08F01FC031F020C032F0BA
:100CA80031C05BF032C05CF01200FFFFFFFF8AEC3E
:100CB80001F05B505C10D8A464EF06F067EF06F013
:100CC800FFFF20EF07F0FFFF5EBE76EF06F05E50F5
:100CD80006E15D04D8B073EF06F076EF06F0FFFF8B
:100CE80085EF06F0FFFF58BE82EF06F0585009E185
:100CF8005704D8A082EF06F085EF06F0FFFF17EF44
:100D080007F0FFFF000E00018D6F000E8C6FACEF37
:100D180006F0FFFFD8908C35D96E8D35DA6E000E4F
:100D2800D926050EDA228C515D248A6F8D515E20FA
:100D38008B6FD8908A378B37000E8A25E16E040EA8
:100D48008B21E26EDECFE6FFDDCFE5FF8C4B8D2BEE
:100D5800FFFF57508C5D8D51800A8A6F5850800A6A
:100D68008A59D8A0BAEF06F0BDEF06F0FFFF8DEF65
:100D780006F0FFFF000E1F6E040E206E57505D2414
:100D8800216E58505E20226E14EC03F0000E1F6E88
:100D9800040E206E57505D24216E58505E20226E3E
:100DA8007EEC08F01FC05DF020C05EF000C453F078
:100DB80001C454F0000E00018F6F000E8E6FFEEF1D
:100DC80006F0FFFFD8908E35D96E8F35DA6E020E99
:100DD800D926040EDA22D8908E35E16E8F35E26E70
:100DE800000EE126040EE222DECFE6FFDDCFE5FFAE
:100DF8008E4B8F2BFFFF5D508E5D8F51800A8A6F5F
:100E08005E50800A8A59D8A00CEF07F00FEF07F060
:100E1800FFFFE5EF06F0FFFF5D06D8A05E06DEECFB
:100E280009F020EF07F0FFFF000E566E000E556E1A
:100E3800000E506E000E4F6EFFFF1200FFFFFFFF07
:100E480003C00FF004C010F0000E0E6E000E0D6E01
:100E5800B8EF07F0FFFF010E0D24116E000E0E20F3
:100E6800126EA4EF07F0FFFFD8901134D96E123438
:100E7800DA6E0150D9260250DA22D8900D34E16E8C
:100E88000E34E26E0150E1260250E222DE50E618EE
:100E980007E1DE50E618D8A454EF07F057EF07F043
:100EA800FFFFA1EF07F0FFFF11C009F012C00AF021
:100EB80011C00BF012C00CF089EF07F0FFFF0BC058
:100EC80005F00CC006F0D8900536063601C007F0CC
:100ED80002C008F00550072606500822020E072413
:100EE800D96E000E0820DA6ED8900934E16E0A3403
:100EF800E26E0150E1260250E222DECFE6FFDDCFAE
:100F0800E5FF094A0A2A0B4A0C2AFFFF0F500B5C1F
:100F18000C50800A056E1050800A0558D8A097EF2B
:100F280007F09AEF07F0FFFF62EF07F0FFFF0F06E9
:100F3800D8A010061106D8A01206FFFF114A122ADF
:100F4800FFFF0F50115C1250800A056E1050800A86
:100F58000558D8A0B2EF07F0B5EF07F0FFFF37EF5D
:100F680007F0FFFF0D4A0E2AFFFF0F500D5C0E50D1
:100F7800800A056E1050800A0558D8A0C6EF07F001
:100F8800C9EF07F0FFFF2EEF07F0FFFF0FC001F0DA
:100F980010C002F01200FFFFFFFFFFFF000E4E6EB1
:100FA800000E4D6E000E506E010E4F6E000E586E04
:100FB800000E576E000E5A6E000E596E000E5E6ED1
:100FC800000E5D6E62EF08F0FFFF51045210D8A4C6
:100FD800F0EF07F0F3EF07F0FFFF0DEF08F0FFFF6A
:100FE8008C8046EC05F08C90060E0001916FB60ED1
:100FF800906FF80EFFFFE82EFDD7902FFBD7912FAB
:10100800F9D700D000F08B92FFFF5AEC06F008EFFA
:1010180008F0FFFF8B9083A814EF08F017EF08F093
:10102800FFFF0DEF08F0FFFF8B808C8046EC05F08A
:101038008C90FFFF020E51185210D8A426EF08F02A
:1010480029EF08F0FFFF43EF08F0FFFF8C8246EC22
:1010580005F08C92060E0001916FB60E906FF80E97
:10106800FFFFE82EFDD7902FFBD7912FF9D700D09F
:1010780000F08B92FFFF5AEC06F03EEF08F0FFFFFE
:1010880052BE53EF08F0525007E1020E515CD8B03F
:1010980050EF08F053EF08F0FFFF7BEF08F0FFFF79
:1010A800FFFF8B9283AA5BEF08F05EEF08F0FFFF6B
:1010B80054EF08F0FFFF8B927BEF08F0FFFF55C05D
:1010C80090F056C091F000019151000AD8B46FEF2A
:1010D80008F07BEF08F0FFFF9051010AD8B4E8EF61
:1010E80007F0030AD8B41DEF08F07BEF08F0FFFF04
:1010F8001200FFFFFFFF21C02DF022C02EF0000ECE
:101108002C6E000E2B6E13EF09F0FFFF010E2B243F
:101118002F6E000E2C20306EFFEF08F0FFFFD890E6
:101128002F34D96E3034DA6E1F50D9262050DA2287
:10113800D8902B34E16E2C34E26E1F50E1262050FB
:10114800E222DE50E61807E1DE50E618D8A4AFEF39
:1011580008F0B2EF08F0FFFFFCEF08F0FFFF2FC028
:1011680027F030C028F02FC029F030C02AF0E4EF73
:1011780008F0FFFF29C023F02AC024F0D8902336B6
:1011880024361FC025F020C026F0235025262450E1
:101198002622020E2524D96E000E2620DA6ED8905B
:1011A8002734E16E2834E26E1F50E1262050E222F7
:1011B800DECFE6FFDDCFE5FF274A282A294A2A2A7B
:1011C800FFFF2D50295C2A50800A236E2E50800A7A
:1011D8002358D8A0F2EF08F0F5EF08F0FFFFBDEFB5
:1011E80008F0FFFF2D06D8A02E062F06D8A030063F
:1011F800FFFF2F4A302AFFFF2D502F5C3050800A06
:10120800236E2E50800A2358D8A00DEF09F010EF56
:1012180009F0FFFF92EF08F0FFFF2B4A2C2AFFFF8F
:101228002D502B5C2C50800A236E2E50800A235898
:10123800D8A021EF09F024EF09F0FFFF89EF08F0AB
:10124800FFFF2DC01FF02EC020F01200FFFFFFFF90
:101258006BEC09F0F1EC09F09AEC09F0FFFF81A0C2
:1012680038EF09F03BEF09F0FFFF45EF09F0FFFF0A
:10127800000E566E010E556EFFFFD1EC07F065EFBC
:1012880009F0FFFF81A24BEF09F04EEF09F0FFFFD5
:1012980055EF09F0FFFF000E566E020E556E40EF37
:1012A80009F0FFFF81A85BEF09F05EEF09F0FFFF8F
:1012B80065EF09F0FFFF000E566E030E556E40EF06
:1012C80009F0FFFF815032EF09F088EF01F0FFFFCE
:1012D800060EC16E9368F00E956E9268FC0E946EC1
:1012E800000E5E6E000E5D6E000E5C6E000E5B6E94
:1012F800000E5A6E000E596E000E586E000E576E94
:10130800000E566E000E556E000E526E000E516E97
:10131800000E506E000E4F6E000E4E6E000E4D6E9B
:10132800000E5F6E030E606E1200FFFFFFFF8B80E2
:101338008B8283A8A2EF09F0A5EF09F0FFFFADEFBC
:1013480009F0FFFFFFFF000E526E010E516EBCEF59
:1013580009F0FFFF8B90FFFF83A8B5EF09F0B8EF06
:1013680009F0FFFFAFEF09F0FFFF8B80A6EF09F050
:10137800FFFF1200FFFF05EE00F0C80EEE6AE80658
:10138800FDE104EE00F0C80EEE6AE806FDE103EEAA
:1013980000F0C80EEE6AE806FDE100EE33F02C0E10
:1013A800EE6AE806FDE161906192000EF86E0001B8
:1013B8002BEF09F0FFFF000E506E000E4F6E000E6F
:1013C8004E6E010E4D6E000E586E000E576E000EDA
:1013D8005C6E000E5B6E1200FFFFFFFFD09EF28E68
:0813E800F28C1200FFFFFFFF71
:020000040020DA
:08000000FFFFFFFFFFFFFFFF00
:020000040030CA
:0E000000FF220D0EFF0080FF0EC00FE00F402C
:00000001FF
