:0600000000F079EF01F0B1
:10000800FFFF6182E1CF15F0E2CF16F0D9CF17F0EC
:10001800DACF18F03EEF01F0FFFF51505210D8B47C
:1000280018EF00F01BEF00F0FFFF6DEF01F0FFFF8E
:1000380056BE2AEF00F0565006E15504D8B027EF17
:1000480000F02AEF00F0FFFF6DEF01F0FFFFD890FE
:100058005D34D96E5E34DA6E000ED926030EDA22CC
:10006800010EDE6E000EDD6E5D4A5E2A000E016E28
:10007800030E026E5DC003F05EC004F0A5EC05F04F
:10008800000E016E030E026E5DC003F05EC004F048
:10009800AEEC08F001C019F002C01AF019C05DF00A
:1000A8001AC05EF06DEF01F0FFFF51505210D8B446
:1000B80060EF00F063EF00F0FFFF6DEF01F0FFFF6E
:1000C80056BE73EF00F0565007E1020E555CD8B0EB
:1000D80070EF00F073EF00F0FFFF6DEF01F0FFFF2E
:1000E800D8905D34D96E5E34DA6E000ED926030ED0
:1000F800DA22020EDE6E000EDD6E5D4A5E2A000E0A
:10010800016E030E026E5DC003F05EC004F0A5EC44
:1001180005F0000E016E030E026E5DC003F05EC0B6
:1001280004F0AEEC08F001C01BF002C01CF01BC0CC
:100138005DF01CC05EF06DEF01F0FFFF51505210F2
:10014800D8B4A9EF00F0ACEF00F0FFFF6DEF01F0BD
:10015800FFFFD8905934D96E5A34DA6E000ED9267A
:10016800050EDA22020EDE6E000EDD6EFFFF594A22
:100178005A2A6DEF01F0FFFF51505210D8B4C7EF63
:1001880000F0CAEF00F0FFFF6DEF01F0FFFF56BE71
:10019800DAEF00F0565007E1030E555CD8B0D7EF00
:1001A80000F0DAEF00F0FFFF6DEF01F0FFFFD890ED
:1001B8005D34D96E5E34DA6E000ED926030EDA226B
:1001C800030EDE6E000EDD6E5D4A5E2A000E016EC5
:1001D800030E026E5DC003F05EC004F0A5EC05F0EE
:1001E800000E016E030E026E5DC003F05EC004F0E7
:1001F800AEEC08F001C01DF002C01EF01DC05DF09D
:100208001EC05EF06DEF01F0FFFF51505210D8B4E0
:1002180010EF01F013EF01F0FFFF6DEF01F0FFFFAA
:10022800D8905934D96E5A34DA6E000ED926050E94
:10023800DA22030EDE6E000EDD6EBAEF00F0FFFF6D
:1002480051505210D8B42BEF01F02EEF01F0FFFF00
:100258006DEF01F0FFFFD8905934D96E5A34DA6E39
:10026800000ED926050EDA22040EDE6E000EDD6EB3
:10027800BAEF00F0FFFF8150136E146A1450000AA1
:10028800D8B449EF01F06DEF01F0FFFF1350010AF8
:10029800D8B410EF00F0030AD8B458EF00F0060AFB
:1002A800D8B4A1EF00F00C0AD8B46DEF01F0180A29
:1002B800D8B4BFEF00F0300AD8B408EF01F0600AF4
:1002C800D8B423EF01F0C00AD8B46DEF01F06DEF98
:1002D80001F0FFFF18C0DAFF17C0D9FF16C0E2FF10
:1002E80015C0E1FF61921100FFFF17EF0BF0FFFF50
:1002F800F4EF02F0FFFF000E566E010E556E03017B
:1003080000050111D8A48BEF01F08EEF01F0FFFF7B
:1003180013EF03F0FFFF000E546E010E536E8B8235
:10032800000E366E000E356EB3EF01F0FFFFD89069
:100338003534D96E3634DA6E020ED926030EDA2237
:10034800D8903534E16E3634E26E000EE126030EA5
:10035800E222DECFE6FFDDCFE5FF354A362AFFFF92
:100368005D50355C3650800A336E5E50800A3358D3
:10037800D8A0C1EF01F0C4EF01F0FFFF9AEF01F040
:10038800FFFF5D06D8A05E068C80BEEC06F08C9060
:10039800060E346EB60E336EF90EFFFFE82EFDD74B
:1003A800332EFBD7342EF9D78B9213EF03F0FFFFD0
:1003B800000E566E020E556E020E03010019011151
:1003C800D8A4E9EF01F0ECEF01F0FFFF13EF03F021
:1003D800FFFF000E546E020E536E8B82000E386EB5
:1003E800000E376E11EF02F0FFFFD8903734D96E48
:1003F8003834DA6E020ED926030EDA22D890373452
:10040800E16E3834E26E000EE126030EE222DECF02
:10041800E6FFDDCFE5FF374A382AFFFF5D50375C3E
:100428003850800A336E5E50800A3358D8A01FEFC8
:1004380002F022EF02F0FFFFF8EF01F0FFFF5D0688
:10044800D8A05E068C82BEEC06F08C92060E346E46
:10045800B60E336EF90EFFFFE82EFDD7332EFBD70D
:10046800342EF9D78B9213EF03F0FFFF000E566E70
:10047800030E556E030E030100190111D8A447EFAE
:1004880002F04AEF02F0FFFF13EF03F0FFFF000E48
:10049800546E030E536E8B82000E3A6E000E396E48
:1004A8006FEF02F0FFFFD8903934D96E3A34DA6E24
:1004B800020ED926030EDA22D8903934E16E3A3486
:1004C800E26E000EE126030EE222DECFE6FFDDCF6C
:1004D800E5FF394A3A2AFFFF5D50395C3A50800AF5
:1004E800336E5E50800A3358D8A07DEF02F080EF5B
:1004F80002F0FFFF56EF02F0FFFF5D06D8A05E0690
:100508008C84BEEC06F08C94060E346EB60E336EF8
:10051800F90EFFFFE82EFDD7332EFBD7342EF9D77F
:100528008B9213EF03F0FFFF000E566E040E556E0C
:10053800040E030100190111D8A4A5EF02F0A8EFD9
:1005480002F0FFFF13EF03F0FFFF000E546E040EDE
:10055800536E8B82000E3C6E000E3B6ECDEF02F0A8
:10056800FFFFD8903B34D96E3C34DA6E020ED926A0
:10057800030EDA22D8903B34E16E3C34E26E000E72
:10058800E126030EE222DECFE6FFDDCFE5FF3B4AA0
:100598003C2AFFFF5D503B5C3C50800A336E5E5046
:1005A800800A3358D8A0DBEF02F0DEEF02F0FFFF3D
:1005B800B4EF02F0FFFF5D06D8A05E068C86BEECA5
:1005C80006F08C96060E346EB60E336EF90EFFFFEB
:1005D800E82EFDD7332EFBD7342EF9D713EF03F0CF
:1005E800FFFF8350336E346A3450000AD8B4FFEFEB
:1005F80002F013EF03F0FFFF3350100AD8B47EEF78
:1006080001F0300AD8B4DBEF01F0600AD8B439EF52
:1006180002F0C00AD8B497EF02F013EF03F0FFFF1F
:100628001200FFFFFFFF47044810D8A41EEF03F095
:1006380021EF03F0FFFF38EF03F0FFFF000E506ECD
:10064800000E4F6E000E526E010E516E000E5A6E65
:10065800000E596E000E5C6E000E5B6E000E606E32
:10066800000E5F6E69EF04F0FFFF47504810D8A4F2
:1006780040EF03F043EF03F0FFFF69EF04F0FFFFE3
:10068800000E526E000E516E000E506E010E4F6E2F
:10069800000E5A6E000E596E000E5C6E000E5B6EF8
:1006A800000E5E6E000E5D6E69EF04F0FFFF5304EE
:1006B8005410D8A462EF03F065EF03F0FFFF7FEF5B
:1006C80003F0FFFF8C80BEEC06F08C90FFFF060E57
:1006D8004A6EB60E496EF90EFFFFE82EFDD7492E79
:1006E800FBD74A2EF9D747C045F048C046F081EC01
:1006F8000AF089EF04F0FFFF8B9083A886EF03F0E0
:1007080089EF03F0FFFF7FEF03F0FFFF8B808C8002
:10071800BEEC06F08C906AEF03F0FFFF020E531850
:100728005410D8A49AEF03F09DEF03F0FFFFA4EF55
:1007380003F0FFFF8C82BEEC06F08C926AEF03F0A8
:10074800FFFF54BEB4EF03F0545007E1020E535CB0
:10075800D8B0B1EF03F0B4EF03F0FFFFC7EF03F039
:10076800FFFFFFFF8B9283AABCEF03F0BFEF03F0FC
:10077800FFFFB5EF03F0FFFF8B828C82BEEC06F023
:100788008C926AEF03F0FFFF8B9083AACEEF03F001
:10079800D1EF03F0FFFFC7EF03F0FFFF8B808C82E0
:1007A800BEEC06F08C926AEF03F0FFFF030E5318BD
:1007B8005410D8A4E2EF03F0E5EF03F0FFFFECEFED
:1007C80003F0FFFF8C84BEEC06F08C946AEF03F014
:1007D800FFFF54BEFCEF03F0545007E1030E535CD7
:1007E800D8B0F9EF03F0FCEF03F0FFFF0FEF04F0D0
:1007F800FFFFFFFF8B9283AC04EF04F007EF04F0D8
:10080800FFFFFDEF03F0FFFF8B828C84BEEC06F048
:100818008C946AEF03F0FFFF8B9083AC16EF04F023
:1008280019EF04F0FFFF0FEF04F0FFFF8B808C84BB
:10083800BEEC06F08C946AEF03F0FFFF040E531829
:100848005410D8A42AEF04F02DEF04F0FFFF34EF82
:1008580004F0FFFF8C86BEEC06F08C966AEF03F07E
:10086800FFFF54BE44EF04F0545007E1040E535CFC
:10087800D8B041EF04F044EF04F0FFFF57EF04F065
:10088800FFFFFFFF8B9283AE4CEF04F04FEF04F0B5
:10089800FFFF45EF04F0FFFF8B828C86BEEC06F06D
:1008A8008C966AEF03F0FFFF8B9083AE5EEF04F047
:1008B80061EF04F0FFFF57EF04F0FFFF8B808C8699
:1008C800BEEC06F08C966AEF03F0FFFF57C049F0C4
:1008D80058C04AF04A50000AD8B475EF04F089EFBE
:1008E80004F0FFFF4950010AD8B45AEF03F0030A95
:1008F800D8B491EF03F0010AD8B4D9EF03F0070A8E
:10090800D8B421EF04F089EF04F0FFFF1200FFFFD5
:10091800FFFF000E0201CB6F000ECA6F000EC96FF9
:10092800000EC86F21C0CCF222C0CDF2FFFF1FC05D
:10093800D9FF20C0DAFFDECFD2F2DDCFD3F2000E2E
:10094800D56F000ED46FF4EF04F0FFFFD890D435C4
:10095800D96ED535DA6E1F50D9262050DA22D251F9
:10096800DE1807E1D351DE18D8A4BDEF04F0C0EFBC
:1009780004F0FFFFC5EF04F0FFFFD4C2C8F2D5C2F0
:10098800C9F2FFFFD890D435D96ED535DA6E1F502D
:10099800D9262050DA22D251DE5CDE50800A256E3C
:1009A800D351800A2558D8B0DCEF04F0DFEF04F00B
:1009B800FFFFF1EF04F0FFFFD890D435D96ED5359D
:1009C800DA6E1F50D9262050DA22DECFD2F2DDCFE0
:1009D800D3F2D4C2C8F2D5C2C9F2FFFFD44BD52B8B
:1009E800FFFFCC51D45DD551800A236ECD51800ACA
:1009F8002358D8A002EF05F005EF05F0FFFFA9EF97
:100A080004F0FFFFC8C2CEF2C9C2CFF231EF05F041
:100A1800FFFFCEC223F0CFC224F0D890233624366D
:100A28001FC025F020C026F023502526245026225A
:100A3800020E2524D96E000E2620DA6ED890CE3507
:100A4800E16ECF35E26E1F50E1262050E222DECF64
:100A5800E6FFDDCFE5FFCE4BCF2BFFFFCC51CE5DC0
:100A6800CF51800A236ECD51800A2358D8A03FEF7A
:100A780005F042EF05F0FFFF0CEF05F0FFFFD890FF
:100A8800CA35D96ECB35DA6E000ED926020EDA22B7
:100A9800D2C2DEFFD3C2DDFFCC07D8A0CD07CA4B38
:100AA800CB2BFF0E236EFF0E246E21C025F022C033
:100AB80026F02350252624502622CA51255C26508C
:100AC800800A276ECB51800A2758D8B06EEF05F000
:100AD80071EF05F0FFFF9AEF04F0FFFF000ED16FF2
:100AE800000ED06F91EF05F0FFFFD890D035D96E8A
:100AF800D135DA6E000ED926020EDA22D890D0351A
:100B0800E16ED135E26E1F50E1262050E222DECFA1
:100B1800E6FFDDCFE5FFD04BD12BFFFF2150D05DA5
:100B2800D151800A236E2250800A2358D8A09FEF03
:100B380005F0A2EF05F0FFFF78EF05F0FFFF1200C8
:100B4800FFFFFFFF000E0101CB6F000ECA6F000E02
:100B5800C96F000EC86F03C0CCF104C0CDF1FFFF10
:100B680001C0D9FF02C0DAFFDECFD2F1DDCFD3F169
:100B7800000ED56F000ED46F0DEF06F0FFFFD89072
:100B8800D435D96ED535DA6E0150D9260250DA221D
:100B9800D251DE1807E1D351DE18D8A4D6EF05F0FC
:100BA800D9EF05F0FFFFDEEF05F0FFFFD4C1C8F174
:100BB800D5C1C9F1FFFFD890D435D96ED535DA6ED5
:100BC8000150D9260250DA22D251DE5CDE50800A6A
:100BD800076ED351800A0758D8B0F5EF05F0F8EF43
:100BE80005F0FFFF0AEF06F0FFFFD890D435D96E65
:100BF800D535DA6E0150D9260250DA22DECFD2F18D
:100C0800DDCFD3F1D4C1C8F1D5C1C9F1FFFFD44BB1
:100C1800D52BFFFFCC51D45DD551800A056ECD513F
:100C2800800A0558D8A01BEF06F01EEF06F0FFFF5C
:100C3800C2EF05F0FFFFC8C1CEF1C9C1CFF14AEF3D
:100C480006F0FFFFCEC105F0CFC106F0D8900536FB
:100C5800063601C007F002C008F005500726065006
:100C68000822020E0724D96E000E0820DA6ED890EA
:100C7800CE35E16ECF35E26E0150E1260250E22218
:100C8800DECFE6FFDDCFE5FFCE4BCF2BFFFFCC510C
:100C9800CE5DCF51800A056ECD51800A0558D8A087
:100CA80058EF06F05BEF06F0FFFF25EF06F0FFFFB9
:100CB800D890CA35D96ECB35DA6E000ED926010E1A
:100CC800DA22D2C1DEFFD3C1DDFFCC07D8A0CD0721
:100CD800CA4BCB2BFF0E056EFF0E066E03C007F046
:100CE80004C008F00550072606500822CA51075CC0
:100CF8000850800A096ECB51800A0958D8B087EF8E
:100D080006F08AEF06F0FFFFB3EF05F0FFFF000ED5
:100D1800D16F000ED06FAAEF06F0FFFFD890D03544
:100D2800D96ED135DA6E000ED926010EDA22D890A6
:100D3800D035E16ED135E26E0150E1260250E22253
:100D4800DECFE6FFDDCFE5FFD04BD12BFFFF035011
:100D5800D05DD151800A056E0450800A0558D8A08C
:100D6800B8EF06F0BBEF06F0FFFF91EF06F0FFFFCC
:100D78001200FFFFFFFFFFFF80A0C5EF06F0C8EFDE
:100D880006F0FFFFF9EF06F0FFFF56BED7EF06F0BB
:100D9800565006E15504D8B0D4EF06F0D7EF06F068
:100DA800FFFFE9EF06F0FFFFD8905D34D96E5E349F
:100DB800DA6E000ED926030EDA22010EDE6E000E60
:100DC800DD6E5D4A5E2AF9EF06F0FFFFD8905F34CA
:100DD800D96E6034DA6E000ED926040EDA22010EBE
:100DE800DE6E000EDD6E5F4A602AFFFF80A2FFEF15
:100DF80006F002EF07F0FFFF34EF07F0FFFF56BEE3
:100E080012EF07F0565007E1020E555CD8B00FEF0D
:100E180007F012EF07F0FFFF24EF07F0FFFFD8906D
:100E28005D34D96E5E34DA6E000ED926030EDA22EE
:100E3800020EDE6E000EDD6E5D4A5E2A34EF07F0AC
:100E4800FFFFD8905F34D96E6034DA6E000ED92671
:100E5800040EDA22020EDE6E000EDD6E5F4A602A94
:100E6800FFFF80A43AEF07F03DEF07F0FFFF6FEFB9
:100E780007F0FFFF56BE4DEF07F0565007E1030E8F
:100E8800555CD8B04AEF07F04DEF07F0FFFF5FEF72
:100E980007F0FFFFD8905D34D96E5E34DA6E000E2D
:100EA800D926030EDA22030EDE6E000EDD6E5D4AD1
:100EB8005E2A6FEF07F0FFFFD8905F34D96E603479
:100EC800DA6E000ED926040EDA22030EDE6E000E4C
:100ED800DD6E5F4A602AFFFF80A675EF07F078EFA6
:100EE80007F0FFFFAAEF07F0FFFF56BE88EF07F0F5
:100EF800565007E1040E555CD8B085EF07F088EF2F
:100F080007F0FFFF9AEF07F0FFFFD8905D34D96E26
:100F18005E34DA6E000ED926030EDA22040EDE6E77
:100F2800000EDD6E5D4A5E2AAAEF07F0FFFFD8903B
:100F38005F34D96E6034DA6E000ED926040EDA22D8
:100F4800040EDE6E000EDD6E5F4A602AFFFF80A889
:100F5800B0EF07F0B3EF07F0FFFFBFEF06F0FFFFBA
:100F6800000E1F6E030E206E5DC021F05EC022F0E1
:100F78008CEC04F0000E1F6E030E206E5DC021F095
:100F88005EC022F05CEC09F01FC031F020C032F0E6
:100F980031C05DF032C05EF01200FFFFFFFF7BEC56
:100FA80001F05D505E10D8A4DCEF07F0DFEF07F02A
:100FB800FFFFA6EF08F0FFFF60BEEEEF07F06050FE
:100FC80006E15F04D8B0EBEF07F0EEEF07F0FFFFA4
:100FD800FDEF07F0FFFF5ABEFAEF07F05A5009E19C
:100FE8005904D8A0FAEF07F0FDEF07F0FFFF93EFE1
:100FF80008F0FFFF000E426E000E416E23EF08F06E
:10100800FFFFD8904134D96E4234DA6E000ED926EB
:10101800050EDA2241505F243F6E42506020406E38
:10102800D8903F364036000E3F24E16E040E402033
:10103800E26EDECFE6FFDDCFE5FF414A422AFFFF41
:101048005950415C4250800A3F6E5A50800A3F58BE
:10105800D8A031EF08F034EF08F0FFFF04EF08F0F4
:10106800FFFF000E1F6E040E206E59505F24216E84
:101078005A506020226E8CEC04F0000E1F6E040E95
:10108800206E59505F24216E5A506020226E5CEC0D
:1010980009F01FC05FF020C060F000C457F001C421
:1010A80058F0000E446E000E436E74EF08F0FFFF18
:1010B800D8904334D96E4434DA6E020ED926040E21
:1010C800DA22D8904334E16E4434E26E000EE12611
:1010D800040EE222DECFE6FFDDCFE5FF434A442AD5
:1010E800FFFF5F50435C4450800A3F6E6050800AA7
:1010F8003F58D8A082EF08F085EF08F0FFFF5BEFBC
:1011080008F0FFFF5F06D8A06006000E4E6E010EC5
:101118004D6E000E3E6E010E3D6EABEF08F0FFFF08
:10112800000E586E000E576E000E526E000E516E75
:10113800000E5E6E000E5D6E000E3E6E010E3D6E80
:10114800ABEF08F0FFFF000E3E6E000E3D6EFFFF96
:101158001200FFFFFFFF03C00FF004C010F0000EE5
:101168000E6E000E0D6E43EF09F0FFFF010E0D2409
:10117800116E000E0E20126E2FEF09F0FFFFD890AF
:101188001134D96E1234DA6E0150D9260250DA229F
:10119800D8900D34E16E0E34E26E0150E126025013
:1011A800E222DE50E61807E1DE50E618D8A4DFEFA9
:1011B80008F0E2EF08F0FFFF2CEF09F0FFFF11C085
:1011C80009F012C00AF011C00BF012C00CF014EFB5
:1011D80009F0FFFF0BC005F00CC006F0D8900536EB
:1011E800063601C007F002C008F005500726065071
:1011F8000822020E0724D96E000E0820DA6ED89055
:101208000934E16E0A34E26E0150E1260250E2220E
:10121800DECFE6FFDDCFE5FF094A0A2A0B4A0C2A92
:10122800FFFF0F500B5C0C50800A056E1050800AAF
:101238000558D8A022EF09F025EF09F0FFFFEDEFE0
:1012480008F0FFFF0F06D8A010061106D8A0120656
:10125800FFFF114A122AFFFF0F50115C1250800A3B
:10126800056E1050800A0558D8A03DEF09F040EFF0
:1012780009F0FFFFC2EF08F0FFFF0D4A0E2AFFFF3B
:101288000F500D5C0E50800A056E1050800A0558EC
:10129800D8A051EF09F054EF09F0FFFFB9EF08F0BB
:1012A800FFFF0FC001F010C002F01200FFFFFFFFA8
:1012B800FFFF21C02DF022C02EF0000E2C6E000E74
:1012C8002B6EF1EF09F0FFFF010E2B242F6E000E9D
:1012D8002C20306EDDEF09F0FFFFD8902F34D96E47
:1012E8003034DA6E1F50D9262050DA22D8902B34A9
:1012F800E16E2C34E26E1F50E1262050E222DE50CF
:10130800E61807E1DE50E618D8A48DEF09F090EF53
:1013180009F0FFFFDAEF09F0FFFF2FC027F030C018
:1013280028F02FC029F030C02AF0C2EF09F0FFFFE3
:1013380029C023F02AC024F0D890233624361FC0B1
:1013480025F020C026F02350252624502622020E00
:101358002524D96E000E2620DA6ED8902734E16E47
:101368002834E26E1F50E1262050E222DECFE6FF4D
:10137800DDCFE5FF274A282A294A2A2AFFFF2D50D0
:10138800295C2A50800A236E2E50800A2358D8A040
:10139800D0EF09F0D3EF09F0FFFF9BEF09F0FFFF53
:1013A8002D06D8A02E062F06D8A03006FFFF2F4AFC
:1013B800302AFFFF2D502F5C3050800A236E2E50AC
:1013C800800A2358D8A0EBEF09F0EEEF09F0FFFFF1
:1013D80070EF09F0FFFF2B4A2C2AFFFF2D502B5CE2
:1013E8002C50800A236E2E50800A2358D8A0FFEF75
:1013F80009F002EF0AF0FFFF67EF09F0FFFF2DC0C9
:101408001FF02EC020F01200FFFFFFFFBBEC0AF018
:101418003DEC0BF0F2EC0AF0FFFF4D504E10D8B443
:1014280018EF0AF01BEF0AF0FFFF28EF0AF0FFFFA2
:10143800000E4E6E000E4D6E000E486E000E476E8A
:1014480016EC03F010EF0AF0FFFF81A02EEF0AF070
:1014580031EF0AF0FFFF43EF0AF0FFFF000E566E70
:10146800010E556E000E586E010E576EFFFF000EEE
:10147800486E010E476E16EC03F010EF0AF0FFFFFE
:1014880081A249EF0AF04CEF0AF0FFFF57EF0AF08C
:10149800FFFF000E566E020E556E000E586E020EBD
:1014A800576E3AEF0AF0FFFF81A85DEF0AF060EF90
:1014B8000AF0FFFF6BEF0AF0FFFF000E566E030EF7
:1014C800556E000E586E030E576E3AEF0AF0FFFF86
:1014D80081A471EF0AF074EF0AF0FFFF10EF0AF031
:1014E800FFFF000E566E020E556E000E586E010E6E
:1014F800576E3AEF0AF079EF01F0FFFF4504461006
:10150800D8A489EF0AF08CEF0AF0FFFF9EEF0AF0EB
:10151800FFFF8B92FFFFD2EC07F03D503E10D8B48E
:1015280098EF0AF09BEF0AF0FFFF8EEF0AF0FFFF3B
:10153800B8EF0AF0FFFF45504610D8A4A6EF0AF00E
:10154800A9EF0AF0FFFFB8EF0AF0FFFF8B90FFFF4B
:1015580036EC0BF01F502010D8B4B5EF0AF0B8EFF6
:101568000AF0FFFFABEF0AF0FFFF1200FFFFFFFFDB
:10157800060EC16E9368F00E956E9268FC0E946E1E
:10158800000E606E000E5F6E000E5E6E000E5D6EE9
:10159800000E5C6E000E5B6E000E5A6E000E596EE9
:1015A800000E586E000E576E000E546E000E536EED
:1015B800000E566E000E556E000E526E000E516EE5
:1015C800000E506E000E4F6E000E4E6E000E4D6EE9
:1015D800000E4C6E000E4B6E1200FFFFFFFF8B805B
:1015E8008B8283A8FAEF0AF0FDEF0AF0FFFF05EF00
:1015F8000BF0FFFFFFFF000E546E010E536E14EF49
:101608000BF0FFFF8B90FFFF83A80DEF0BF010EF9F
:101618000BF0FFFF07EF0BF0FFFF8B80FEEF0AF0E8
:10162800FFFF1200FFFF05EE00F0C80EEE6AE806A5
:10163800FDE104EE00F0C80EEE6AE806FDE103EEF7
:1016480000F0C80EEE6AE806FDE100EE4BF0160E5B
:10165800EE6AE806FDE161906192000EF86E000105
:1016680009EF0AF0FFFF000E206E000E1F6E120039
:10167800FFFFFFFFD09EF28EF28C1200FFFFFFFFEC
:020000040020DA
:08000000FFFFFFFFFFFFFFFF00
:020000040030CA
:0E000000FF220D0EFF0080FF0EC00FE00F402C
:00000001FF
