:0600000000F00AEF00F021
:10000800FFFF348234921100FFFFFFFFD2EF04F0AC
:10001800FFFF67EF01F0FFFF83A815EF00F018EF6F
:1000280000F0FFFF87EF01F0FFFF8B828C80000E4E
:100038002D6E010E2C6E000E1F6E000E1E6E3EEF12
:1000480000F0FFFFD8901E34D96E1F34DA6E360EDA
:10005800D926000EDA22D8901E34E16E1F34E26EE3
:10006800340EE126000EE222DECFE6FFDDCFE5FF0B
:100078001E4A1F2AFFFF32501E5C1F50800A1C6E4A
:100088003350800A1C58D8A04CEF00F04FEF00F016
:10009800FFFF25EF00F0FFFF3206D8A03306A2ECE1
:1000A80002F08C90060E1D6EB60E1C6EF90EFFFF48
:1000B800E82EFDD71C2EFBD71D2EF9D78B9287EF84
:1000C80001F0FFFF83AA6BEF00F06EEF00F0FFFF77
:1000D80087EF01F0FFFF8B828C82000E2D6E020EDF
:1000E8002C6E000E216E000E206E94EF00F0FFFFC4
:1000F800D8902034D96E2134DA6E360ED926000E07
:10010800DA22D8902034E16E2134E26E340EE126F2
:10011800000EE222DECFE6FFDDCFE5FF204A212AEE
:10012800FFFF3250205C2150800A1C6E3350800A39
:100138001C58D8A0A2EF00F0A5EF00F0FFFF7BEF5E
:1001480000F0FFFF3206D8A03306A2EC02F08C9232
:10015800060E1D6EB60E1C6EF90EFFFFE82EFDD7BB
:100168001C2EFBD71D2EF9D78B9287EF01F0FFFFCE
:1001780083ACC1EF00F0C4EF00F0FFFF87EF01F0A0
:10018800FFFF8B828C84000E2D6E030E2C6E000EEA
:10019800236E000E226EEAEF00F0FFFFD8902234A3
:1001A800D96E2334DA6E360ED926000EDA22D890AC
:1001B8002234E16E2334E26E340EE126000EE22290
:1001C800DECFE6FFDDCFE5FF224A232AFFFF3250CC
:1001D800225C2350800A1C6E3350800A1C58D8A019
:1001E800F8EF00F0FBEF00F0FFFFD1EF00F0FFFFAA
:1001F8003206D8A03306A2EC02F08C94060E1D6ECF
:10020800B60E1C6EF90EFFFFE82EFDD71C2EFBD78D
:100218001D2EF9D78B9287EF01F0FFFF83AE17EF02
:1002280001F01AEF01F0FFFF87EF01F0FFFF8B826B
:100238008C86000E2D6E040E2C6E000E256E000EA0
:10024800246E40EF01F0FFFFD8902434D96E253496
:10025800DA6E360ED926000EDA22D8902434E16EF2
:100268002534E26E340EE126000EE222DECFE6FFF0
:10027800DDCFE5FF244A252AFFFF3250245C2550B4
:10028800800A1C6E3350800A1C58D8A04EEF01F02B
:1002980051EF01F0FFFF27EF01F0FFFF3206D8A072
:1002A8003306A2EC02F08C96060E1D6EB60E1C6E7E
:1002B800F90EFFFFE82EFDD71C2EFBD71D2EF9D710
:1002C8008B9287EF01F0FFFF34C01CF035C01DF0A2
:1002D8001D50000AD8B473EF01F087EF01F0FFFF5B
:1002E8001C50010AD8B40FEF00F0030AD8B465EF28
:1002F80000F0010AD8B4BBEF00F0070AD8B411EF38
:1003080001F087EF01F0FFFF1200FFFFFFFF000E73
:100318000D6E000E0C6E000E0B6E000E0A6E03C002
:100328000EF004C00FF0FFFF01C0D9FF02C0DAFFD2
:10033800DECF14F0DDCF15F0000E176E000E166E2E
:10034800F1EF01F0FFFFD8901634D96E1734DA6E4A
:100358000150D9260250DA221450DE1807E1155050
:10036800DE18D8A4BAEF01F0BDEF01F0FFFFC2EF2D
:1003780001F0FFFF16C00AF017C00BF0FFFFD8907E
:100388001634D96E1734DA6E0150D9260250DA22A3
:100398001450DE5CDE50800A076E1550800A07583C
:1003A800D8B0D9EF01F0DCEF01F0FFFFEEEF01F07C
:1003B800FFFFD8901634D96E1734DA6E0150D9265B
:1003C8000250DA22DECF14F0DDCF15F016C00AF0A5
:1003D80017C00BF0FFFF164A172AFFFF0E50165CD6
:1003E8001750800A056E0F50800A0558D8A0FFEFF5
:1003F80001F002EF02F0FFFFA6EF01F0FFFF0AC0D5
:1004080010F00BC011F02EEF02F0FFFF10C005F046
:1004180011C006F0D8900536063601C007F002C0B4
:1004280008F00550072606500822020E0724D96E48
:10043800000E0820DA6ED8901034E16E1134E26EA6
:100448000150E1260250E222DECFE6FFDDCFE5FFD4
:10045800104A112AFFFF0E50105C1150800A056ED9
:100468000F50800A0558D8A03CEF02F03FEF02F089
:10047800FFFF09EF02F0FFFFD8900C34D96E0D345E
:10048800DA6E340ED926000EDA2214C0DEFF15C04B
:10049800DDFF0E06D8A00F060C4A0D2AFF0E056ECA
:1004A800FF0E066E03C007F004C008F005500726CB
:1004B800065008220C50075C0850800A096E0D503F
:1004C800800A0958D8B06BEF02F06EEF02F0FFFF18
:1004D80097EF01F0FFFF000E136E000E126E8EEF05
:1004E80002F0FFFFD8901234D96E1334DA6E340E4E
:1004F800D926000EDA22D8901234E16E1334E26E57
:100508000150E1260250E222DECFE6FFDDCFE5FF13
:10051800124A132AFFFF0350125C1350800A056E1B
:100528000450800A0558D8A09CEF02F09FEF02F013
:10053800FFFF75EF02F0FFFF1200FFFFFFFFFFFF55
:1005480080A0A9EF02F0ACEF02F0FFFFDDEF02F0B0
:10055800FFFF2DBEBBEF02F02D5006E12C04D8B0F2
:10056800B8EF02F0BBEF02F0FFFFCDEF02F0FFFFA4
:10057800D8903234D96E3334DA6E340ED926000E60
:10058800DA22010EDE6E000EDD6E324A332ADDEF0E
:1005980002F0FFFFD8903034D96E3134DA6E340E61
:1005A800D926000EDA22010EDE6E000EDD6E304A0C
:1005B800312AFFFF80A2E3EF02F0E6EF02F0FFFF2F
:1005C80018EF03F0FFFF2DBEF6EF02F02D5007E104
:1005D800020E2C5CD8B0F3EF02F0F6EF02F0FFFF4A
:1005E80008EF03F0FFFFD8903234D96E3334DA6E57
:1005F800340ED926000EDA22020EDE6E000EDD6EF3
:10060800324A332A18EF03F0FFFFD8903034D96EFE
:100618003134DA6E340ED926000EDA22020EDE6E7E
:10062800000EDD6E304A312AFFFF80A41EEF03F072
:1006380021EF03F0FFFF53EF03F0FFFF2DBE31EF73
:1006480003F02D5007E1030E2C5CD8B02EEF03F019
:1006580031EF03F0FFFF43EF03F0FFFFD890323490
:10066800D96E3334DA6E340ED926000EDA22030E30
:10067800DE6E000EDD6E324A332A53EF03F0FFFFC1
:10068800D8903034D96E3134DA6E340ED926000E53
:10069800DA22030EDE6E000EDD6E304A312AFFFFCD
:1006A80080A659EF03F05CEF03F0FFFF8EEF03F035
:1006B800FFFF2DBE6CEF03F02D5007E1040E2C5CFC
:1006C800D8B069EF03F06CEF03F0FFFF7EEF03F0A3
:1006D800FFFFD8903234D96E3334DA6E340ED9260F
:1006E800000EDA22040EDE6E000EDD6E324A332A68
:1006F8008EEF03F0FFFFD8903034D96E3134DA6EC4
:10070800340ED926000EDA22040EDE6E000EDD6EDF
:10071800304A312AFFFF80A894EF03F097EF03F0E7
:10072800FFFFA3EF02F0FFFF340E186E000E196EE4
:1007380032C01AF033C01BF018C001F019C002F023
:100748001AC003F01BC004F08AEC01F01200FFFF8E
:10075800FFFFE6EF03F0FFFF000E8C6E11EF04F0D1
:10076800FFFFD8902A34D96E2B34DA6E000ED926C2
:10077800010EDA22020EDE6E000EDD6EFFFF2A4A3F
:100788002B2A11EF04F0FFFFD8902A34D96E2B34AE
:10079800DA6E000ED926010EDA22030EDE6E000E86
:1007A800DD6EC2EF03F0FFFF100E8C6E11EF04F048
:1007B800FFFF200E8C6E11EF04F0FFFF400E8C6ED1
:1007C80011EF04F0FFFF8150016E026A0250000A27
:1007D800D8B4F1EF03F011EF04F0FFFF0150000A65
:1007E800D8B4AFEF03F0020AD8B4B4EF03F0060AA6
:1007F800D8B411EF04F00C0AD8B4C7EF03F0180A04
:10080800D8B4D7EF03F0300AD8B4DCEF03F0600AAD
:10081800D8B4E1EF03F011EF04F0FFFF1200FFFF7F
:10082800FFFF000E316E000E306E000E336E000EAC
:10083800326E000E2B6E000E2A6E59EF04F0FFFF89
:100848002C042D10D8A42BEF04F02EEF04F0FFFF9A
:1008580047EF04F0FFFF8C80A2EC02F08C90060EAC
:10086800276EB60E266EF90EFFFFE82EFDD7262E50
:10087800FBD7272EF9D78B92FFFF0CEC00F0ACECDE
:1008880003F040EF04F0FFFF8B9083A84EEF04F0D5
:1008980051EF04F0FFFF47EF04F0FFFF8B808C80DF
:1008A800A2EC02F08C906DEF04F0FFFF2EC026F052
:1008B8002FC027F02750000AD8B465EF04F06DEF79
:1008C80004F0FFFF2650010AD8B423EF04F06DEFBF
:1008D80004F0FFFF1200FFFFFFFFE5EC04F0ADECB2
:1008E80004F0FFFF81AC7BEF04F07EEF04F0FFFF24
:1008F80088EF04F0FFFF000E2F6E010E2E6EFFFF33
:1009080014EC04F075EF04F0FFFF81A28EEF04F001
:1009180091EF04F0FFFF98EF04F0FFFF000E2F6E39
:10092800020E2E6E83EF04F0FFFF81A69EEF04F007
:10093800A1EF04F0FFFFA8EF04F0FFFF000E2F6EF9
:10094800030E2E6E83EF04F0FFFF75EF04F00AEF3D
:1009580000F0FFFF8B808B8283A8B5EF04F0B8EF1F
:1009680004F0FFFFC0EF04F0FFFFFFFF000E2D6E45
:10097800010E2C6ECFEF04F0FFFF8B90FFFF83A8D2
:10098800C8EF04F0CBEF04F0FFFFC2EF04F0FFFF65
:100998008B80B9EF04F0FFFF1200FFFF01EE00F0BB
:1009A800C80EEE6AE806FDE100EE28F00C0EEE6ACD
:1009B800E806FDE134903492000EF86E000170EF05
:1009C80004F0FFFF060EC16E9368F00E956E9268F4
:0A09D800FC0E946E1200FFFFFFFFFB
:020000040020DA
:08000000FFFFFFFFFFFFFFFF00
:020000040030CA
:0E000000FF220D0EFF0080FF0EC00FE00F402C
:00000001FF
